:020000040800F2
:10000000F00C0020ED010008156D0008D543000834
:10001000ED650008D50400085187000800000000C5
:10002000000000000000000000000000BD72000899
:10003000370B000800000000836E0008D57A000826
:10004000070200080702000807020008070200086C
:10005000070200080702000807020008070200085C
:100060000702000807020008070200087D0A0008CE
:10007000890A0008070200080702000807020008B2
:100080000702000800000000F9020008070200084B
:10009000070200080702000807020008070200081C
:1000A00007020008517B0008070200080702000849
:1000B0005D7B00080702000807020008070200082D
:1000C00007020008070200080702000807020008EC
:1000D0000702000845870008070200080702000819
:1000E00007020008070200080702000807020008CC
:1000F00007020008070200080702000800000000CD
:1001000000000000070200080000000007020008CD
:1001100007020008000000000702000807020008AC
:10012000070200080702000807020008070200088B
:10013000070200080000000000000000070200089D
:10014000070200080702000800000000000000008D
:10015000000000000000000000000000000000009F
:10016000000000000000000000000000070200087E
:10017000070200080000000000000000000000006E
:10018000000000000702000800000000000000005E
:10019000000000000000000000000000000000005F
:1001A000000000000000000007020008070200082D
:1001B000070200080702000807020008000000000C
:1001C000000000000702000800000000000000001E
:1001D0000702000807020008DFF80CD000F07AF8E8
:1001E0000048004721880008F00C0020064880479E
:1001F00006480047FEE7FEE7FEE7FEE7FEE7FEE70C
:10020000FEE7FEE7FEE7FEE7417B0008D9010008B4
:100210002DE9F05F0546002092469B46884606463B
:10022000814640241BE0284641464746224600F0CE
:1002300041F853465A46C01A914110D31146184608
:10024000224600F028F82D1A67EB01084F46224697
:100250000120002100F01FF817EB00094E41201E7D
:10026000A4F10104DFDC484631462A464346BDE896
:10027000F09FD2B201E000F8012B491EFBD270477B
:100280000022F6E710B513460A4604461946FFF762
:10029000F0FF204610BD202A04DB203A00FA02F1CC
:1002A000002070479140C2F1200320FA03F3194364
:1002B00090407047202A04DB203A21FA02F0002106
:1002C000704721FA02F3D040C2F120029140084366
:1002D00019467047064C074D06E0E06840F0010300
:1002E00094E8070098471034AC42F6D3FFF778FF44
:1002F00054F8000874F80008014801F061BA0000E1
:100300003400002010B5846AE16D11F0500F06D062
:10031000E16DC90625D5204601F050FA10BDE06D0B
:1003200040F40070E06520680168090716D505F003
:10033000FDFD78B12068C068800400280ADBE06D0C
:1003400020F48070E065E06DC00403D4E06D40F0FF
:100350000100E065204601F02FFA10BDC06880075B
:10036000EBE7616D496BBDE81040084710B5806A46
:10037000C16D41F04001C165016E41F004010166AB
:1003800001F01CFA10BD10B5806A01F016FA10BD1C
:1003900070B5044600688168C1F3400505F0B6FDFC
:1003A00048B345BB2068816801F00D01012914D1D3
:1003B0008168124A1140891C81602168032008600D
:1003C00001F098FF054612E001F094FF401B02285F
:1003D0000DD920688068C00709D0E06D40F010009A
:1003E000E065206E40F001002066012070BD2068AD
:1003F0008068C007E8D1002070BD0000C0FFFF7F0B
:10040000F8B5044600200090206805F07FFDE8BBA9
:1004100020688168214A11422ED18168D64331403B
:10042000491C81601E48806800F0E07000020DD514
:100430001C481D490068B0FBF1F0401C00EB400077
:10044000800000E0401E00900028FBD101F052FF28
:1004500005461CE005F05AFD20B92068816831404E
:10046000491C816001F046FF401B02280FD920681B
:100470000068C043C0070AD0E06D40F01000E0659E
:10048000206E40F0010020660120F8BD04E02068E5
:100490000168C943C907DDD10020F6E73F000080AD
:1004A000000300500C000020400D030090ED001AE6
:1004B000B4EEC01AF1EE10FA02D9B0EE410A01E032
:1004C00080ED000AB4EEE00AF1EE10FA01DBC0EDB7
:1004D000000A7047FEE74288002192B1B2F5806FB2
:1004E00015D28269816811448160026A01691144F0
:1004F000016142694168114441604188491C418061
:10050000704741708160016141604180E9E7826824
:10051000921282600269921202614268921200EEA7
:10052000102A4260D0ED0F0AB8EEC00A20EE200A71
:1005300080ED0D0A418001214170704790ED050A60
:10054000D0ED0F0AB8EEC00A20EE200A80ED0C0AAA
:10055000D0ED0D0A30EE600A80ED0E0A7047027889
:100560008168012A426801D18A1A42604369D21A1D
:1005700043785A4392FBF1F301FB1322002A00DA7D
:100580000A4400EE101AF8EEC00A00EE102AB8EE87
:10059000C00A80EE201A80ED071A704782688169D0
:1005A000D0ED100A8A1A90F900104A4300EE102A82
:1005B000B8EEC00A20EE200A80ED090A0369026A3B
:1005C000B1EE400AD21A4A4301EE102AB8EEC11A1F
:1005D00061EE200AC0ED0B0A30EE600A80ED0A0AD7
:1005E0007047D0E901128A1AC0E9021200EE102AFF
:1005F0004188F6EE000AB8EEC01A00EE101AB8EE06
:10060000400A20EE200AB4EEC01AF1EE10FA01DB27
:10061000521AC26000EE102A4B42B8EEC01A00EE29
:10062000103AB8EEC00A20EE200AB4EEC01AF1EE7D
:1006300010FA01D81144C160D0E9032111440161CD
:100640007047000030B59FED7A3AD0ED100AD0ED3A
:100650000F1ADFED783AF6EE002A21EEA30A00EE3B
:10066000E20A9FED751AF5EEC00A21EE811A00EE3E
:10067000E21AF1EE10FA01DD012300E00023B5EEED
:10068000C00AF1EE10FA01DD012200E00022B5EE11
:10069000C01AF1EE10FA01DD012100E0002189000D
:1006A00001EB4201CC18B0F8481000EE101AB8EE79
:1006B000400A9FED621A90ED112A072C20EE010AE4
:1006C00020EE201A60EEA30AFFEE083A81EE020A3D
:1006D000B7EE081A61EEA33A21EE814A01EE101A34
:1006E00001EE901AB8EE411AF8EE611A24EE014AB2
:1006F00063EEA13A01EE101A01EE901AB8EE411A1B
:10070000F8EE611A00EE814A40EEA13A84EE021A38
:10071000C3EE821A21D2DFE804F020071B04110C7B
:100720001600F1EE610A1CE0F0EE610AB0EE410A3B
:1007300017E0F0EE400AB1EE410A12E0F1EE400A95
:10074000B0EE610A0DE0F1EE410AB1EE610A08E097
:10075000F0EE410AB1EE400A03E0F0EE430AB0EEDB
:10076000430AB0F84A2030EE801A01EE902AF8EEE3
:10077000611AB4EEE11AF1EE10FA0FDD01EE902AE3
:10078000F8EE611A61EEA01AC1EE810A01EE902A1C
:10079000F8EE611A61EE801A81EE810A01EE101AFC
:1007A000F5EE001A072CB8EE411A31EE601A31EE60
:1007B000401A21EE211ABCEEC11A11EE101A8AB2AB
:1007C00001EE102AB8EE411A00EEA21AFCEEC10AA0
:1007D00010EE901A89B200EE901AF8EE600A40EE20
:1007E000220ABCEEE00A10EE103A9BB205D2DFE816
:1007F00004F004081A04110D150020F84C2F418054
:1008000002E020F84C1F4280838030BD20F84C3F2E
:1008100042800BE020F84C3F418002E020F84C1F62
:100820004380828030BD20F84C2F4380818030BDD2
:10083000000000002DB25D3F2DB25DBF2DB2DD3F47
:1008400013B5DFED311A03462DED020BF7EE000A6A
:10085000B0EE610A6846FFF729FEDDED000A9FED64
:100860002B1A2B4C60EE810AFCEEE00A10EE900A87
:1008700082B2900AC2F309020AD0012815D00228D8
:1008800020D003282FD0C3ED001AC1ED001A1FBDE0
:1008900004EB820090ED000AA4EB820000F54060BA
:1008A00083ED000A90EDFF0A2BE0A4EB820000F537
:1008B000406090EDFF0A04EB820083ED000A90EDAA
:1008C000000A0DE004EB820090ED000AA4EB820028
:1008D00000F54060B1EE400A83ED000A90EDFF0A9A
:1008E000B1EE400A0DE0A4EB820000F5406090ED0F
:1008F000FF0A04EB8200B1EE400A83ED000A90ED9E
:10090000000A81ED000A1FBD0000000000F07F45D5
:1009100054E80008D0ED030A90ED040AB7EE001A7F
:1009200030EEC00A10EE101A80ED050AC0ED040A80
:10093000B1F17C5F03DB30EE410A80ED050A10EE79
:10094000101AB1F13F4F03D330EE010A80ED050AD2
:10095000D0ED060A20EE200A80ED070AD0ED090A44
:10096000D0ED081A20EE200A71EE600A01EEA00A0E
:1009700080ED080A017800EE901AF8EE600A80EE29
:10098000201A80ED0A1A704790ED000ADFED070A81
:1009900080ED030A9FED061A20EE200AD0ED010A31
:1009A00000EE810A80ED040A704700003ACD133F43
:1009B00039CD933F70B5274C04F1B00094ED220A75
:1009C000054684ED2C0A94ED230A84ED2D0AFFF7E9
:1009D000DBFF284606F040FA94ED330AD4ED370ADF
:1009E000F7EE001A94ED351A20EE200A71EEE00AB7
:1009F00004F5827001EE200A84ED350AD4ED340A44
:100A000094ED381A94ED362A60EE810A31EEC11A5F
:100A100042EE010AC4ED360AC4ED450A84ED530ADC
:100A200006F079F904F59E7006F075F994ED460A22
:100A3000284684ED3A0A94ED540A84ED390A04F00C
:100A4000CDF894ED250A284684ED3D0ABDE87040B6
:100A5000FFF7F8BDB004002010B50748044604F0C5
:100A6000BDF805492046B03991ED250A81ED3D0AD2
:100A7000BDE81040FFF7E6BD60050020014801F029
:100A80003ABA0000E0020020014801F034BA000048
:100A9000400300200D4902688A4201D20C4901E05E
:100AA0000B492031D2B21423083AB2FBF3F2436C63
:100AB00002F01F0223F003031944816404498031CA
:100AC000C1640121914001657047000008040240A3
:100AD000000802400179074A02EB81024265054A9B
:100AE0004432491E826501F01F0201219140C16517
:100AF00070470000FC08024030B5D0E9134565603E
:100B0000446D14B1D0E91645656090F8444004F096
:100B10001F050124AC40056C6C6004686360836849
:100B2000102B036803D099600068C26030BD9A60E2
:100B30000068C16030BD704790ED060AD0ED080A2C
:100B40009FED0F1A60EE200A90ED090A00EE810A6F
:100B5000F7EE000A10EE101A80ED090AB1F17E5F7F
:100B600003DB30EE600A80ED090AB5EEC00AF1EE53
:100B700010FA03D230EE200A80ED090A7047000017
:100B80008D7A883C3EB500200E4D019002464FF410
:100B9000007402902146284601F0A7FB4FF6FF7231
:100BA0000092022302AA01A9074802F0B0FA01222A
:100BB0002146284601F099FBBDF8080040BA80089C
:100BC0003EBD000000040048A000002072B6FEE711
:100BD00010B5642001F092FA04F0B4F805F0F2FFC9
:100BE0007F211D4800F046F80A2001F087FA032211
:100BF0001A49194801F096F8194800210268516312
:100C0000026891630068C163154802F08BFF0421FC
:100C1000134802F087FF0821114802F083FF1048B3
:100C200002F002FD0F4802F0FFFC0F4802F0C6FC84
:100C3000012211460D4801F058FB4FF0904401226B
:100C40000221204601F051FB20460122BDE8104060
:100C5000042101F04ABB00003400002058050020A8
:100C600068010020B40100200002002000040048B8
:100C700005F092B9F8B500250446009590F85800A3
:100C80000E4601280BD0012084F858002046FFF7BB
:100C90007FFB0200E06D04D040F010002AE002204B
:100CA000F8BD20F4885040F00200E06520688168BB
:100CB000134B194006F08043194341F00041816015
:100CC000104B20680EE00099491C0091994209D30D
:100CD000E06D20F0020040F01000E06584F858500C
:100CE0000120F8BD8168C90FEDD1E06D20F0020050
:100CF00040F00100E06584F858501046F8BD00004F
:100D0000C0FFFF3F02DE0400704700002DE9F84FEE
:100D10004FF000080446CDF800800D4694F85820A6
:100D2000DFF80094616947464046012A0AD001264F
:100D3000FD4A84F8586041B1296A012905D0A36EA3
:100D4000EBB129E00220BDE8F88F6868092838D1A6
:100D5000A96A4FF4785041B12B6801F07C0100EA98
:100D600053400843E96A084302E0296800EA514019
:100D70002168CB6C13400343CB64606621E0C4E977
:100D80001971A96A286A31B101F07C01401E08433B
:100D9000E96A084300E0401E2968C1F384632979A9
:100DA00001F01F018B400343A06E401EA066616EE0
:100DB00041EA0301616604D12068C36C13400B4310
:100DC000C364206805F09EF858B995F8250098B1DD
:100DD0002068C16895F8262021F4401141EA42516B
:100DE000C160206805F09EF88246206805F08AF808
:100DF0005AEA00010DD0FAE095F8260095F8241083
:100E0000400540EA01512068C26822F440121143B3
:100E1000E6E7A86A30B1E86A20B195F82500012814
:100E20005DD003E095F82500012804D02068C16852
:100E300021F0007103E02068C16841F00071C160D9
:100E400095F83000012851D02068016921F0020195
:100E50000161AA6829682068B2F1004F37D005F017
:100E60007CF82068416921F00041416120686A698D
:100E7000C168C1F3C10149008A402969042943D0EE
:100E800000EB81002B68016EDFF8A0C203F0F8438D
:100E900001EA0C011343194341F000410166226845
:100EA0002869A96902EB8000026E22F080720A4371
:100EB0000266297F22682869012922D0002102EBDD
:100EC0008000026E22F000720A4302668FE0002268
:100ED00005F043F82068416941F00041C5E7E06D45
:100EE00040F02000E0654FF00108A9E7D5E90D10BA
:100EF00001432068026922F4FF7242F002021143AA
:100F0000A6E74FF00071DAE7002104F0F1FF40039B
:100F100020684FF0000171D004F0EAFF90FAA0F0D1
:100F2000B0FA80F1286842036DD090FAA0F0B0FAD0
:100F300080F0814204D100221146206805F024F897
:100F40000121206804F0D4FF400320684FF0010124
:100F50005CD004F0CDFF90FAA0F0B0FA80F12868E0
:100F6000420358D090FAA0F0B0FA80F0814204D148
:100F700000220121206805F007F80221206804F012
:100F8000B7FF400320684FF0020147D004F0B0FFE4
:100F900090FAA0F0B0FA80F12868420343D090FAAA
:100FA000A0F0B0FA80F0814204D100220221206832
:100FB00004F0EAFF0321206804F09AFF4003206850
:100FC0004FF0030132D004F093FF90FAA0F0B0FA92
:100FD00080F1286842032ED090FAA0F0B0FA80F099
:100FE000814204D100220321206804F0CDFF206853
:100FF00004F090FF10B3B3E000E004E004F078FFE9
:10100000C0F384618EE7C0F3846092E704F070FF60
:10101000C0F38461A3E7C0F38460A7E704F068FF2E
:10102000C0F38461B8E7C0F38460BCE704F060FFFC
:10103000C0F38461CDE7C0F38460D1E721682A7BE7
:10104000286851F8B03FC0F3120C23EA0C0302F0F9
:10105000180C374A22FA0CF2024013430B60E9687D
:1010600049457DD1286841031AD090FAA0F1B1FA20
:1010700081F1491C01F01F0109294FEA403130D8A4
:10108000002910D090FAA0F1B1FA81F101F101012B
:1010900001F01F0106FA01F608D1C0F3846109E0EE
:1010A000C0F38461E5E7C0F38461EFE790FAA0F153
:1010B000B1FA81F101F1010101F01F0146EA8161FC
:1010C00002D1C0F3846003E090FAA0F0B0FA80F09F
:1010D00000F1010000F01F0000EB400041EA005168
:1010E0003AE000290DD090FAA0F1B1FA81F101F1B6
:1010F000010101F01F0106FA01F605D1C0F3846178
:1011000006E0C0F38461F2E790FAA0F1B1FA81F150
:1011100001F1010101F01F0146EA81610BD1C0F329
:1011200084600CE000007F400040100400F0FF03EA
:10113000FFFF070014E090FAA0F0B0FA80F000F191
:10114000010000F01F002B4A00EB400002EB0050B2
:1011500041EA000141F00071AA68206804F0FDFE38
:1011600025482968014240D0244A9068244B00F069
:10117000E070994202D0234B99421BD1030219D44B
:101180002168B1F1A04F30D1916840F4000021F006
:10119000E071014391601C481C490068B0FBF1F00C
:1011A000801C00EB4000800000E0401E0090002802
:1011B000FBD11AE0164D174BA94207D1C50105D442
:1011C0002168994211D040F0807009E0124DA94287
:1011D0000BD1410209D42168994206D040F4800025
:1011E000916821F0E0710143916084F858704046A5
:1011F000A9E50000000020FE000008800003005068
:10120000000021C31000C0900C000020400D03001E
:10121000000052C700010050000084CB10B54FF011
:10122000A040D0F880110F4CE167D0F88401C4F8D9
:101230008400B4F8A800A067FFF7A4FC206406F0BF
:1012400037FF05F0C1FC0848B4F8FC100268516390
:101250000268B4F8FE1091630068B4F80011C1632D
:1012600010BD0000B004002068010020704700009D
:101270002DE9F04104464548806800F01F052068CC
:1012800004F040FE08BB2068C168C06C01F000415A
:1012900010F4C07F00D191B194F85800012814D007
:1012A000012084F858002046FFF7AAF801004FF00B
:1012B00000070CD084F858700846BDE8F081E06D56
:1012C00040F02000E0650120F7E70220F5E7E06D3F
:1012D000C00504D5206E20F00800206600E02766D7
:1012E000E06D42F20102904340F48050E065284BEB
:1012F00020684FF0A046984201D1324600E00246F5
:10130000824200D01DB9E26D22F48012E2656022B3
:10131000026084F858702068C268920203D542685F
:1013200042F480624260A06908282068426807D0C1
:1013300022F0400242602068426842F0200206E04B
:1013400022F0200242602068426842F0400242607F
:101350002068984201D1324600E00246824209D01C
:1013600045B1062D06D0072D04D0E06D40F4801065
:10137000E065A1E7C26812F0007F9DD18268054B4D
:101380001A4042F00802826096E700000003005015
:1013900000010050C0FFFF7F704770472DE9F84FF4
:1013A00000270446009790F85800DFF8D8930D46C0
:1013B000B846012810D0012684F85860206804F04F
:1013C000ADFD58B1E06D40F02000E065012784F8E4
:1013D00058803846BDE8F88F0220FBE7D5E90021A8
:1013E0000C23206803EA91131844036B01F01F01DA
:1013F0004FF01F0C0CFA01FCC2F3846223EA0C03C9
:101400008A4013430363206804F088FD8246206805
:1014100004F074FD5AEA00013CD1AA6829682068EA
:10142000B2F1004F37D004F089FD2068416921F006
:101430000041416120686A69C168C1F3C101490086
:101440008A402969042931D000EB81002B68016EA4
:10145000DFF834C303F0F84301EA0C0113431943E6
:1014600041F00041016622682869A96902EB800009
:10147000026E22F080720A430266297F2268286980
:10148000012910D0002102EB8000026E22F00072D0
:101490000A4302667DE0002204F050FD20684169A5
:1014A00041F00041C5E74FF00071ECE7002104F086
:1014B00019FD400320684FF0000171D004F012FDC7
:1014C00090FAA0F0B0FA80F1286842036DD090FA4B
:1014D000A0F0B0FA80F0814204D1002211462068C9
:1014E00004F04AFD0121206804F0FCFC4003206860
:1014F0004FF001015CD004F0F5FC90FAA0F0B0FAD6
:1015000080F12868420358D090FAA0F0B0FA80F039
:10151000814204D100220121206804F02DFD022126
:10152000206804F0DFFC400320684FF0020147D040
:1015300004F0D8FC90FAA0F0B0FA80F128684203D9
:1015400043D090FAA0F0B0FA80F0814204D100229A
:101550000221206804F010FD0321206804F0C2FC81
:10156000400320684FF0030132D004F0BBFC90FA36
:10157000A0F0B0FA80F1286842032ED090FAA0F0D3
:10158000B0FA80F0814204D100220321206804F0E7
:10159000F3FC206804F0BAFC10B3AAE000E004E019
:1015A00004F0A0FCC0F384618EE7C0F3846092E78E
:1015B00004F098FCC0F38461A3E7C0F38460A7E75C
:1015C00004F090FCC0F38461B8E7C0F38460BCE72A
:1015D00004F088FCC0F38461CDE7C0F38460D1E7F8
:1015E00021682A7B286851F8B03FC0F3120C23EA27
:1015F0000C0302F0180C654A22FA0CF20240134365
:101600000B60E968494574D1286841031AD090FA03
:10161000A0F1B1FA81F1491C01F01F0109294FEA3B
:10162000403130D8002910D090FAA0F1B1FA81F100
:1016300001F1010101F01F0106FA01F608D1C0F322
:10164000846109E0C0F38461E5E7C0F38461EFE7FA
:1016500090FAA0F1B1FA81F101F1010101F01F014D
:1016600046EA816102D1C0F3846003E090FAA0F001
:10167000B0FA80F000F1010000F01F0000EB400024
:1016800041EA005131E000290DD090FAA0F1B1FA01
:1016900081F101F1010101F01F0106FA01F605D106
:1016A000C0F3846106E0C0F38461F2E790FAA0F130
:1016B000B1FA81F101F1010101F01F0146EA8161F6
:1016C00002D1C0F3846003E090FAA0F0B0FA80F099
:1016D00000F1010000F01F002D4A00EB400002EB7A
:1016E000005041EA000141F00071AA68206804F04E
:1016F00025FC2848296801423FF469AE264A9068D3
:10170000264B00F0E070994202D0254B99421CD143
:1017100003021AD42168B1F1A04F7FF458AE91684A
:1017200040F4000021F0E071014391601D481E4922
:101730000068B0FBF1F0401C00EB4000800000E0CE
:10174000401E00900028FBD141E6184D184BA942DD
:1017500007D1C50105D421689942F5D040F08070C9
:1017600009E0144DA942EFD14102EDD4216899421C
:10177000EAD040F48000916821F0E071014391606B
:1017800025E6000000007F4000F0FF03FFFF070098
:10179000000020FE0000088000030050000021C36C
:1017A0001000C0900C000020400D0300000052C744
:1017B00000010050000084CB704770477047000064
:1017C0002DE9F05F0446006806684568DFF854B20A
:1017D000DBF8080000F01F07B0070ED5A8070CD5EE
:1017E000E06DC00603D4E06D40F40060E065204683
:1017F000FFF78AFA216802200860DFF82CA2700740
:101800004FF0A04801D5680703D4300737D5280723
:1018100035D5E06DC00603D4E06D40F40070E0659E
:10182000206804F083FB20B32068504501D1414675
:1018300000E00146814208D03FB1052F05D0092FB5
:1018400003D0504503D1414602E0C16801E00146A2
:10185000C96889040DD4016809070AD504F05EFB44
:1018600058B3E06D40F01000E065206E40F00100DC
:1018700020662046FFF7A0FF21680C200860B00614
:1018800001D5A80603D4700658D5680656D5E06D74
:10189000C00603D4E06D40F40050E0652068C16CE0
:1018A00011F4C07F1AD00021894604F03FFB0246A4
:1018B0002068504514D1414613E02068416821F06A
:1018C0000C014160E06D20F48070E065E06DC004C3
:1018D000CFD4E06D40F00100E065CAE70121E3E705
:1018E0000146814208D03FB1062F05D0072F03D013
:1018F000504503D1414602E0C16801E00146C96894
:10190000B9F1000F14D08B0102D58AB18A040FD42B
:10191000026852060CD589020AD404F0EFFAE8B343
:10192000E06D40F01000E065206E40F001002066A0
:101930002046FFF773FC21686020086030060BD555
:10194000280609D5E06D40F48030E065204600F0BF
:1019500065F9216880200860F0050CD5E8050AD5F6
:10196000E06D40F40030E0652046FFF715FD21688A
:101970004FF480700860B0050CD5A8050AD5E06D5D
:1019800040F48020E0652046FFF707FD21684FF412
:1019900000700860F0062ED5E80600E008E02AD5C1
:1019A000E06BD0B1AFB1DBF8080000F4604013E0A9
:1019B0002068416821F060014160E06D20F48050B2
:1019C000E065E06DC005B3D4E06D40F00100E06576
:1019D000AEE72068C068C00750B1E06D40F4806099
:1019E000E065206E40F0020020662046FFF7E6FE2C
:1019F000216810200860700512D5680510D5E06DCB
:101A000040F48040E065206E40F0080020662168C8
:101A10004FF4806008602046BDE8F05FFFF726BC09
:101A2000BDE8F09F0003005000010050F8B54FF0F2
:101A3000000504002E46009502D0E06D10B107E0CD
:101A40000120F8BD204600F0EBF8266684F85860C7
:101A500020688168C1F3407119B18168674A1140FB
:101A6000816020688168C1F3007189B98168644A26
:101A7000114041F080518160624863490068B0FBC9
:101A8000F1F04000801C00E0401E00900028FBD1D7
:101A900020688168C1F3007141B9E16D41F0100126
:101AA000E165216E41F001012166012504F036FA5D
:101AB000E16DC90600D430B1E06D40F01000E06582
:101AC00001252846F8BDE06D20F4807040F002004A
:101AD000E065206804F01AFA88B94FF0A0408068E9
:101AE0004A49C0F300008968C1F30001084306D1E8
:101AF000474960688A6822F47C1202438A60E16880
:101B0000E06B627F0843A16841EA4231084394F8E0
:101B1000241040EA0140012904D1218D3D4A02EB05
:101B200041410843E16A29B101F47871226B014314
:101B300042EA01002168CA68374B1A400243CA6072
:101B400020680169626B21F04061114301612068E6
:101B500004F0D4F970BB207F94F83810800340EA79
:101B600041012068C26844F202039A430A43C260FA
:101B700020690028206801690AD041F480310161A0
:101B8000206850F8C01F22696FF30D01114307E070
:101B900021F480310161206850F8C01F6FF30D01FE
:101BA000016094F8400001280CD02068016921F000
:101BB00001010161606901282068016B21F00F01BA
:101BC00010D012E0D4E911100143D4E913021043FC
:101BD00001432068026940F2FC739A43114341F0CB
:101BE0000101E6E7226A521E11430163E06D20F015
:101BF000020040F00100E06563E70000C0FFFF5F06
:101C0000C0FFFF7F0C000020400D030000010050CA
:101C1000000300500000FEFF0740F0FF7047000087
:101C2000F0B597B0064614216846FEF729FB44211B
:101C300005A8FEF725FB35493068884263D1C0010D
:101C400005908003149005A800F052FC08B1FEF73F
:101C5000BDFF2F49C86C40F40050C864C86C00F444
:101C600000501690C86C40F00100C864C86C00F0C9
:101C700001001690C86C40F00400C864C86C00F005
:101C800004001690C86C40F00200C864C86C0324BD
:101C900000F002001690502000258DE831006946C2
:101CA0004FF0904000F03CFA202700976946194811
:101CB000CDE9014500F034FA48F204008DE8310026
:101CC0006946154800F02CFA154C14482060242071
:101CD000C4E901058020C4E9035040006061800030
:101CE0002562C4E90607204600F062F908B1FEF754
:101CF0006DFF7465002201211220A66200F060FBD6
:101D0000122000F04FFB17B0F0BD000000010050A2
:101D1000001002400008004800040048080002408B
:101D2000E00200202DE9F041044634481746884679
:101D3000806800F01F05206804F0F0F800285AD1F0
:101D400094F85800012856D0012084F85800002645
:101D500025B1052D02D0092D00D003E02046FEF765
:101D60004FFB18B184F85860BDE8F081E06D40F693
:101D70000161884340F48070E06521492068884211
:101D800002D14FF0A04100E00146814200D01DB9D0
:101D9000E06D20F48010E065E06DC00404D5206E95
:101DA00020F00600206600E02666616D1548C862D6
:101DB000616D15480863616D1448486321681C20F3
:101DC000086084F858602068416841F01001416063
:101DD0002068C16841F00101C16021683B4642466C
:101DE0004031606D00F044F921688A68084B1A4060
:101DF000121D8A60B8E70220B6E700000003005019
:101E00000001005005030008870300086D03000867
:101E1000C0FFFF7F10B590F8252000210123022A82
:101E200003D00421C163012122E00268146824F078
:101E30000E041460826C146824F4807414600268C8
:101E4000146824F00104146090F84420046C02F03B
:101E50001F0203FA02F26260D0E913245460426D5B
:101E600032B1146824F480741460D0E916245460EC
:101E700080F82530002280F82420084610BD70B577
:101E800090F82510002401222346022907D00421BE
:101E9000C16380F8252080F82430012429E00168FE
:101EA0000D6825F00E050D6001680D6825F001052F
:101EB0000D60816C0D6825F480750D6090F84410FC
:101EC000154601F01F018A40016C4A60D0E91312E7
:101ED0004A60416D31B10A6822F480720A60D0E92B
:101EE00016124A6080F8255080F82430816B01B1C9
:101EF0008847204670BDF0B4016C0B6801680A6821
:101F000090F84440042504F01F0405FA04F61E422C
:101F100011D056070FD50A68920603D40A6822F03A
:101F200004020A6090F8441001F01F018D40016C1A
:101F30004D60016B1DE0022606FA04F71F424FF0C8
:101F4000000C4FF0010518D0970716D50A689206C5
:101F500005D40A6822F00A020A6080F8255090F839
:101F6000441001F01F018E40016C4E6080F824C0C7
:101F7000C16A00291AD0F0BC08470826A6401E42B4
:101F800014D0120712D50A6822F00E020A6090F8E7
:101F90004410026C01F01F0105FA01F15160C563A4
:101FA00080F8255080F824C0416BE2E7F0BC704710
:101FB00070B504000CD02B4A20681421904209D23D
:101FC000294A0244B2FBF1F18900616427490AE021
:101FD000012070BD234A52420244B2FBF1F1890054
:101FE0006164204908392164022184F825100168C0
:101FF00047F6F0729143D4E902231A43D4E9043539
:102000002B431A43A3691A43E3691A43236A1A4309
:102010000A4302602046FEF73DFDA0680025B0F5AA
:10202000804F00D16560A16C20790860D4E913016C
:1020300041606068401E032808D82046FEF74AFD2C
:10204000606D0560D4E91601416002E06565A56533
:10205000E565E563012084F8250084F8245000201C
:1020600070BD000008040240F8FFFDBF0000024000
:1020700070B5044690F82400002501280CD00120FA
:1020800084F8240094F825600020012E06D084F8FE
:1020900024000225284670BD022070BD022684F867
:1020A0002560E0632068066826F001060660204689
:1020B000FEF722FD206B00282068016802D041F065
:1020C0000E0106E021F0040101602068016841F082
:1020D0000A010160A06C0168C90303D5016841F4DD
:1020E00080710160606D18B1016841F48071016018
:1020F0002068016841F001010160CBE770B504463A
:1021000000F0F8F80546601C02D00448406804441A
:1021100000F0F0F8401BA042FAD370BD0000002090
:102120002DE9F84FDFF888910022A9F1040B03276D
:102130004FF00F0C09F1040AABF1040EB1E00125D8
:1021400095402B4073D00C7904F00304012C01D08E
:10215000022C15D18668540007FA04F826EA08060E
:10216000D1F80C8008FA04F848EA0608C0F808809C
:102170004468AC430D79C5F300159540254345608F
:102180000C79E443A40708D0C568540007FA04F6A4
:10219000B5438E68A6402E43C6600C7904F0030454
:1021A000022C11D1D40800EB8406356A5407E40EE2
:1021B0000CFA04F825EA0805D1F8108008FA04F8AA
:1021C00048EA0508C6F820800568540007FA04F6B6
:1021D000B5430E7906F00306A6402E4306604C6810
:1021E00014F4403F5CD0334C256E45F00105256664
:1021F000246E22F0030504F0010400942E4C05EB3C
:102200000408D8F808509407260F0CFA06F4A543E2
:10221000B0F1904F04D0294CA04203D1012417E023
:10222000002415E0264CA04202D1022410E037E041
:10223000244CA04201D103240AE0234CA04201D146
:10224000042405E0214CA04201D1052400E006242D
:10225000B4402C43C8F80840D9F800404D464E68B9
:102260009C43F60200D51C432C60DAF8004055462A
:102270004E689C43B60200D51C432C60DBF800403E
:102280005D464E689C43B60300D51C432C60DEF8C7
:10229000004075464E689C43F60300D51C432C60F5
:1022A000521C0B6833FA02F47FF449AFBDE8F88F93
:1022B00008040140001002400000014000040048F2
:1022C00000080048000C00480010004800140048B6
:1022D0000069084000D001207047426921EA0203EA
:1022E0000A4043EA0241816170470AB18161704747
:1022F000816270470148806870470000000000203C
:1023000002488168426811448160704700000020E3
:1023100010B50024032000F073F80F2000F008F837
:1023200008B1012401E000F025F8204610BD0000AE
:1023300070B50E4E05460024706898B14FF47A715E
:10234000B1FBF0F00A490968B1FBF0F001F011F8B7
:1023500040B9102D06D200222946501E00F030F858
:10236000356000E00124204670BD00000000002020
:102370000C0000200A4882B0016E41F001010166A4
:10238000016E01F001010091816D41F08051816584
:10239000806D00F08050009002B000F0A1B8000005
:1023A00000100240002809DB00F01F0201219140CB
:1023B0004009800000F1E020C0F8001170470000E3
:1023C000F0B40E4B1B68C3F30223C3F10704042CC3
:1023D00000D904241D1D072D01D2002300E0DB1EBF
:1023E000012606FA04F56D1E0D409D409E40761EA6
:1023F000164045EA0601F0BC06F0F2B90CED00E02B
:10240000064A00F0070110684FF6FF03184040EA43
:102410000120034908431060704700000CED00E004
:102420000000FA052B492C4B0A6832214A432B49FC
:1024300040B1B0F5007F086829D020F4C06040F4B6
:1024400080602CE00868C0F34120022804D051F8D5
:10245000800F20F4807022E0D1F8800020F480709A
:10246000C1F88000086820F4C06040F40070086083
:10247000B2FBF3F0401C00E0401E4A69520501D552
:102480000028F9D1486940050AD503207047C0F3F8
:102490004120022806D051F8800F40F48070086077
:1024A00000207047D1F8800040F48070C1F88000AF
:1024B000086820F4C06040F400700860B2FBF3F0DC
:1024C000401C00E0401E4A695205DBD50028F9D1C6
:1024D000D8E700000C00002040420F0000700040D0
:1024E0000248816841F4804181607047007000407B
:1024F0002DE9F84F044600260068A24D3746000338
:102500005CD5A86D4FF00009C00009D4A86D40F05B
:102510008050A865A86D4FF0010900F08050009030
:10252000DFF864A2DAF8001041F48071CAF80010F4
:10253000FFF7E0FE804607E0FFF7DCFEA0EB0800B7
:10254000022801D9032631E0DAF80000C005F3D5EE
:1025500066BBD5F8900010F4407014D0216C814215
:1025600011D0D5F89000D5F8901020F4407041F4C7
:102570008031C5F89010D5F8901021F48031C5F85D
:102580009010C5F89000C0074ED0FFF7B3FE80460C
:1025900041F2883A05E0FFF7ADFEA0EB0801514596
:1025A000D0D8D5F890008007F5D5EEB33746B9F10D
:1025B000000F03D0A86D20F08050A8652078C007D8
:1025C00007D0D5F88800616820F003000843C5F8FB
:1025D00088002078800707D5D5F88800A16820F00A
:1025E0000C000843C5F888002078400707D5D5F8C7
:1025F0008800E16820F030000843C5F888002078A2
:10260000000707D5D5F88800216920F0C0000843ED
:10261000C5F888002078800609D5D5F8880061695A
:1026200020F44060084300E03DE0C5F888002078D1
:10263000400607D5D5F88800A16920F4405008432A
:10264000C5F888002078000607D5D5F88800E1692C
:1026500020F440400843C5F888002088C00507D50D
:10266000D5F88800216A20F440300843C5F8880076
:102670002088800507D5D5F88800616A20F44020BD
:102680000843C5F888002088400519D5D5F888008A
:10269000A16A20F440100843C5F88800A06AB0F58C
:1026A000801F09D00CE0D5F89000216C20F4407018
:1026B0000843C5F890007AE7E86840F48010E860C5
:1026C000208800050FD5D5F88800E16A20F4400085
:1026D0000843C5F88800E06AB0F5800F03D1E868C8
:1026E00040F48010E8602088C0040FD5D5F8880039
:1026F000216B20F040700843C5F88800206BB0F1D2
:10270000807F03D1E86840F48010E860208881046D
:102710004FF000600ED5D5F88810626B21F0406153
:102720001143C5F88810616B814203D1E96841F417
:102730008011E960218849040ED5D5F88810A26B74
:1027400021F040611143C5F88810A16B814203D18B
:10275000E86840F48010E860208800040FD5D5F8C0
:102760008800E16B20F040500843C5F88800E06B1A
:10277000B0F1805F03D1E86840F48030E86038460B
:10278000BDE8F88F00100240007000402DE9F047CE
:102790000D4604004FF0000725D0DFF8A091D9F8CE
:1027A000000000F00F00A8420CD2D9F8001021F070
:1027B0000F012943C9F80010D9F8000000F00F00FC
:1027C000A84210D121685E4EC80741F2883A52D023
:1027D0006068DFF87081032808D00228306826D0AE
:1027E0004005002825DB0120BDE8F0873068800126
:1027F000F9D5F068F068544BC0F30310401CB3FBEC
:10280000F0F0F268C2F306225043F268C2F341626C
:10281000521C5200B0FBF2F0404515D9B06810F0E0
:10282000F00F0AD088070FD5A06830B10CE0800304
:10283000D7E700F0B5F8404506D9B06820F0F000C1
:1028400040F08000B0608027B068616820F003002D
:102850000843B060FFF74EFD804605E0FFF74AFDF4
:10286000A0EB080151453BD8B068616800F00C004E
:10287000B0EB810FF2D12068810714D5400703D552
:10288000B06840F4E060B0602078000705D5B0681B
:1028900020F4605040F4E060B060B068A16820F0BF
:1028A000F000084304E0802F03D1B06820F0F0006E
:1028B000B060D9F80010484601F00F01A94217D9BD
:1028C0000168C84621F00F0129430160FFF712FD9E
:1028D0000746D14606E0FFF70DFDC11B494501D96A
:1028E000032081E7D8F8000000F00F00A842F2D1E1
:1028F0002078400705D5B068E16820F4E06008431F
:10290000B0602078000706D5B068216920F46050D7
:1029100040EAC100B06000F043F8B1680B4AC1F36F
:102920000311515C01F01F01C840094908600948C2
:102930000068BDE8F047FFF7FBBC00000020024044
:102940000010024000B4C4040024F4000C89000804
:102950000C00002000000020054806490068896836
:10296000054AC1F30221515C01F01F01C8407047C4
:102970000C000020001002401C8900080548064990
:1029800000688968054AC1F3C221515C01F01F014A
:10299000C84070470C000020001002401C8900084D
:1029A000134A9068C0F38101124801290AD0916846
:1029B000C1F38101022905D09168C1F38101032986
:1029C00001D000207047D16801F00303D168C1F342
:1029D0000311491CB0FBF1F0D168C1F30621484353
:1029E000D168C1F34161491C4900B0FBF1F0704767
:1029F000001002400024F4002DE9F843040078D0D0
:102A00002078F54DC00745D0A868E96800F00C00B3
:102A100001F003010C2802D0082817D001E0032997
:102A200014D06068B0F5803F17D0B0F5A02F2868AB
:102A300017D020F480302860286820F48020286097
:102A40006068D8B1FFF756FC064613E0286880039B
:102A500020D560680028D2D01CE0286840F480307F
:102A6000EDE740F480202860F7E7FFF743FC801B88
:102A700064286ED828688003F7D50BE0FFF73AFC8E
:102A8000064604E0FFF736FC801B6428F1D828686E
:102A90008003F7D4207880074BD5A868E96800F058
:102AA0000C0001F003010C2802D004280DD001E035
:102AB00002290AD0E068002828682BD040F48070F2
:102AC0002860FFF717FC064619E02868400502D584
:102AD000E068002893D06868217C20F0FE4040EA3E
:102AE00001606860BD480068FFF722FC002800D143
:102AF0001FE06DE1FFF7FEFB801B0228B9D82868B4
:102B00004005F7D56868217C20F0FE4040EA01606E
:102B100068600EE020F480702860FFF7EBFB06464B
:102B200004E0FFF7E7FB801B0228A2D828684005D5
:102B3000F7D42078000728D560690028D5F89400DC
:102B400012D040F00100C5F89400FFF7D3FB064611
:102B500005E08FE0FFF7CEFB801B022889D8D5F86F
:102B600094008007F6D510E020F00100C5F894002D
:102B7000FFF7C0FB064604E0FFF7BCFB801B022802
:102B800078D8D5F894008007F6D42078400761D52E
:102B9000A86D0027C00008D4A86D40F08050A8653B
:102BA000A86D012700F0805000908D480168C9058C
:102BB00011D40168804641F480710160FFF79AFBEF
:102BC000064604E0FFF796FB801B022852D8D8F88F
:102BD0000000C005F6D5A068012815D00528D5F855
:102BE000900016D020F00100C5F89000D5F89000B4
:102BF00020F00400C5F89000A06841F28838B8B110
:102C0000FFF778FB06460EE0D5F8900040F0010093
:102C1000F0E740F00400C5F89000F5E7FFF76AFB25
:102C2000811B414526D8D5F890008007F6D50CE0E9
:102C3000FFF760FB064604E0FFF75CFB811B4145A4
:102C400018D8D5F890008007F6D41FB1A86D20F0F1
:102C50008050A8652078800628D5A0690028D5F87E
:102C6000980012D040F00100C5F89800FFF742FB31
:102C7000064605E072E0FFF73DFB801B02286DD899
:102C8000D5F898008007F6D510E020F00100C5F8CF
:102C90009800FFF72FFB064604E0FFF72BFB801B95
:102CA00002285BD8D5F898008007F6D4E069E8B32D
:102CB000A968C1F3810103295BD00228286820F0AC
:102CC0008070286003D0FFF715FB044649E0FFF74A
:102CD00011FB064604E0FFF70DFB801B02283DD8E0
:102CE00028688001F7D4F4E908016FF00F0202EBC5
:102CF00001110843218A5204490802EB4151A2689C
:102D000041EA02210843217D4FF07E42490802EB4F
:102D100041610843217B40EAC160E968314A1140C2
:102D20000843E860286840F0807000E052E02860C6
:102D3000E86840F08070E860FFF7DCFA044604E0E1
:102D4000FFF7D8FA001B022808D828688001F7D5B9
:102D500040E0FFF7CFFA001B022802D90320BDE8AC
:102D6000F88328688001F4D4E8681F490840E860C7
:102D700030E00128F3D0E868226A00F003019142B4
:102D800026D1616A00F0F0020901103991421FD189
:102D9000A26A00F4FE41B1EB022F19D194F82C2065
:102DA00000F07841B1EBC26F12D1218E00F4C00265
:102DB00049084905A1F50011914209D194F8341050
:102DC00000F0C06049084906A1F10071814201D0BC
:102DD0000120C4E70020C2E70010024000000020EC
:102DE000007000400C809F01FCFFEEFE70B50400F7
:102DF00009D0606A002540B125616561A56294F83B
:102E00005D0040B10CE0012070BD6068B0F5827FCC
:102E1000F4D0E561F2E784F85C50204600F05CF8FD
:102E2000022084F85D002068016821F04001016003
:102E3000E0684FF4E062904201D9002101E04FF4D4
:102E40008051B0F5706F02D0904200D0A562A0888A
:102E5000228900F4827002F404421043227C02F0C2
:102E600002021043227D02F001021043228B02F481
:102E700000721043227F02F03802104394F82020A1
:102E800002F080021043228D02F4005210432268A7
:102E90001060A069042202EA104094F8242001F492
:102EA000805102F01002104394F8342002F008021E
:102EB0001043A28902F470621043084321684860FD
:102EC0002068C16921F40061C1612566012084F890
:102ED0005D00002070BD000010B586B004461421CE
:102EE0006846FDF7CDF92168204C002220480223D6
:102EF000A14219D1016E41F480510166016E01F4C5
:102F000080510591C16C41F00201C164C06C6946F9
:102F100000F00200059038200090CDE90132052034
:102F2000CDE9032013481DE0134CA1421CD1816D53
:102F300041F400418165816D01F400410591C16C4E
:102F400041F00401C164C06C694600F004000590C2
:102F50004FF4A050CDE900030320CDE90220062064
:102F600004900648FFF7DCF806B010BD00300140C1
:102F70000010024000040048003C004000080048E7
:102F80002DE9F84F044690F85C0000261D46904657
:102F90008A4601280ED04FF0010984F85C90FFF7B3
:102FA000A9F9074694F85D004146B346012804D0CC
:102FB0000226A8E00220BDE8F88FBAF1000F78D011
:102FC000B8F1000F75D0032084F85D00C4F860B03C
:102FD000C4F838A0A4F83C80A4F83E80C4F840B0FF
:102FE000A4F844B0A4F846B0C4F850B0C4F84CB04B
:102FF000A068B0F5004F09D12068026822F04002B5
:1030000002602068026842F4804202602068026820
:10301000520603D4026842F040020260E068B0F554
:10302000E06F606824D908B101291BD1A06B216829
:103030000088C86006E020688168890709D5A16B0F
:103040000988C160A06B801CA063E08F401EE087F0
:1030500008E0FFF74FF9C01BA84202D3681C01D05B
:1030600004E01DB1E08F0028E5D138E0032648E0F8
:1030700008B1012930D1E08F0128A06B03D9216864
:103080000088C8600FE021680078087314E0E087CA
:1030900022E020688168890714D5E18F0129A16B9E
:1030A00008D90988C160A06B801CA063E08F801ED6
:1030B000EDE724E009780173A06B401CA063E08F6A
:1030C000401EE4E7FFF716F9C01BA84202D3681CB4
:1030D00002D0CBE7002DC9D0E08F0028D9D13A46E5
:1030E0002946204603F0FCFF08B120202066A06896
:1030F00018B92068C16880680090206E08B1012668
:1031000001E084F85D9084F85CB0304653E72DE927
:10311000FF5F044690F85C0001250E9E1F46934613
:103120004FF0000801280ED0AA4684F85CA0FFF7F3
:10313000E1F8814694F85D00616801280DD0B1F591
:10314000827F08D103E0022004B0BDE8F09FA168AF
:1031500009B9042801D0022002E10198002874D0A6
:10316000BBF1000FFBD0002FF9D094F85D000428CC
:1031700002D0052084F85D0000202066C4F840B02D
:10318000A4F84670A4F844700199A163E787A78763
:10319000E0642065E0684FF4E061884201D8012FC7
:1031A00004D92068426822F4805203E02068426813
:1031B00042F48052426020680268520603D40268DA
:1031C00042F040020260E0688842606846D908B177
:1031D000012F3BD1A06B21680088C860A06B801CC8
:1031E000A063E08F401EE08730E020688168890797
:1031F0000DD5E18F59B1012D09D1A16B0988C160AD
:10320000A06B801CA063E08F401EE0870025206833
:103210008168C9070ED0B4F8461059B1C068216C56
:103220000880206C801C2064B4F84600401EA4F87E
:1032300046000125FFF75EF8A0EB0900B04205D378
:10324000701C03D04FF003088CE088E0E08F00286A
:10325000CBD1B4F846000028C7D174E008B1012FE3
:103260006AD1E08F0128A06B08D921680088C86066
:10327000A06B801CA063E08F801E07E021680078AF
:103280000873A06B401CA063E08F401EE08753E0F2
:1032900020688168890718D5E18FB1B1012D14D15B
:1032A000E18F0129A16B07D90988C160A06B801C3F
:1032B000A063E08F801E06E009780173A06B401CBC
:1032C000A063E08F401EE087002520688168C90761
:1032D00027D0B4F8461021B3B4F84610012914D908
:1032E000C068216C0880206C801C2064B4F8460003
:1032F000801EA4F84600B4F84600012810D82068C3
:10330000416841F4805141600AE0007B216C087003
:10331000206C401C2064B4F84600401EA4F846000F
:103320000125FEF7E7FFA0EB0900B04202D3701CB5
:1033300002D087E7002E85D0E08F0028A8D1B4F80E
:1033400046000028A4D14A463146204603F0C8FE74
:1033500018B120204FF001082066206E10B1012026
:10336000804601E084F85DA0002084F85C004046BF
:10337000EAE610B5401EB0F1807F01D3012010BDF8
:103380004FF0E02460610F21601705F029FA00205A
:10339000A06107202061002010BD70477047704772
:1033A00030B590F83C20012A42D0012280F83C2020
:1033B000CA688B6822F440721A434B6822F4806218
:1033C0001A430B6822F400621A430B6922F48052FC
:1033D0001A434B6922F400521A430B6B22F48042C9
:1033E0001A430B8B22F4702242EA0342CB6922F08B
:1033F00080521A430F4D03680024AB4202D00E4D99
:10340000AB4210D10D8D22F4700242EA05520D6AD2
:1034100022F080722A434D6A22F000722A43C96A60
:1034200022F000520A435A6480F83C40002030BD2C
:10343000022030BD002C014000340140704770472D
:1034400070470000F0B590F83C20012A3AD00125E1
:1034500080F83C50022280F83D2003685A689C683E
:10346000194E1A4FB34201D0BB4204D122F4700C62
:103470004A6842EA0C02DFF858C002EA0C02D1F8AE
:1034800000C04CEA020CC3F804C00268B2420DD07E
:10349000B2F1804F0AD00F4B9A4207D00E4B9A429E
:1034A00004D0BA4202D00D4B9A4204D1896824F06C
:1034B00080031943916080F83D50002180F83C1052
:1034C0000846F0BD0220F0BD002C01400034014050
:1034D0008FFFFFFD00040040000800400040014055
:1034E000704710B5040003D094F83D0010B107E018
:1034F000012010BD002084F83C00204600F022F896
:10350000022084F83D00211D206804F02DFB0120DD
:1035100084F8480084F83E0084F83F0084F84000B6
:1035200084F8410084F8420084F8430084F84400A1
:1035300084F8450084F8460084F8470084F83D008C
:10354000002010BD08B50068194A1A4990420ED1F2
:10355000086E40F400600866086E002200F4006007
:10356000009011461920FEF72BFF19201CE0B0F146
:10357000804F0BD0104A904207D1886D40F0100068
:103580008865886D00F01000009008BD886D40F0DF
:1035900001008865886D002200F001000090022182
:1035A0001C20FEF70DFF1C20BDE80840FEF7FABE08
:1035B000002C0140001002400010004090F83D1027
:1035C000012901D001207047022180F83D100068D8
:1035D0000F4988420ED0B0F1804F0BD00D49884280
:1035E00008D00D49884205D00C49884202D00C49C8
:1035F000884207D181680B4A1140062906D0B1F5EF
:10360000803F03D0016841F0010101600020704754
:10361000002C01400004004000080040003401403C
:10362000004001400700010090F83D10012901D041
:1036300001207047022180F83D100168CA6842F0FD
:103640000102CA600068104988420ED0B0F1804F74
:103650000BD00E49884208D00D49884205D00D494B
:10366000884202D00C49884207D181680B4A114038
:10367000062906D0B1F5803F03D0016841F0010171
:103680000160002070470000002C01400004004051
:1036900000080040003401400040014007000100E4
:1036A00070B5044690F83C000025012814D001268E
:1036B00084F83C60022084F83D0020688268364B24
:1036C0001A4022F47F428260086870282ED010DCF5
:1036D00010F00F0F03D021E04FF0020070BD4FEA51
:1036E0002012072A1AD2DFE802F0525252524A3808
:1036F00040002A4BC21A984249D009DCB0F5805FDD
:103700000DD0B0F5005F1CD0B0F1101F06D13EE027
:10371000102A3CD0202A3AD0502A38D0012584F8EB
:103720003D60002084F83C00284670BDCB68D1E99C
:103730000121206804F083FA2068816841F0770154
:1037400009E0CB68D1E90121206804F078FA20680B
:10375000816841F480418160E1E7CA684968206876
:1037600004F018FC5021206806E0CA684968206807
:1037700004F021FC6021206804F06CFACFE7CA68ED
:103780004968206804F006FC40212068F4E72268BC
:1037900001461046F0E7000088FFCEFF2000100031
:1037A00070472DE9F04104460068C66805694FF08E
:1037B0000007A90713D5B10711D5F91E0161012032
:1037C0002077206880698007204602D0FFF7E8FF55
:1037D00004E000F0E1F8204600F0A3F9277768073D
:1037E00016D5700714D521686FF004000861022017
:1037F00020772068806910F4407F204602D0FFF7D0
:10380000CFFF04E000F0C8F8204600F08AF92777DF
:10381000280715D5300713D521686FF00800086117
:10382000042020772068C0698007204602D0FFF777
:10383000B7FF04E000F0B0F8204600F072F92777F7
:10384000E80616D5F00614D521686FF0100008615F
:10385000082020772068C06910F4407F204602D0FD
:10386000FFF79EFF04E000F097F8204600F059F9BA
:103870002777E80708D0F00706D021686FF001002D
:103880000861204600F0D2F9280601D4A80408D522
:10389000300606D521686FF4025008612046FFF714
:1038A0007DFDE80508D5300606D521686FF48070E7
:1038B00008612046FFF771FD680608D5700606D539
:1038C00021686FF040000861204600F0E5F9A80685
:1038D00008D5B00606D521686FF0200008612046A3
:1038E000FFF75DFDE80208D5F00206D521686FF408
:1038F000801008612046FFF7A2FDA80208D5B0029B
:1039000006D521686FF4001008612046FFF796FD88
:10391000680208D5700206D521686FF4800008613E
:103920002046FFF78DFD28020AD5300208D5216810
:103930006FF4000008612046BDE8F041FFF7D0BDFC
:10394000BDE8F08110B586B0044614216846FCF746
:1039500097FC0E492068884215D10D48C16C41F092
:103960000401C164C06C002100F0040005900F2028
:1039700000900220CDE901010321CDE90310694641
:103980000448FEF7CDFB06B010BD0000002C01403E
:103990000010024000080048704770B5044690F8D7
:1039A0003C0000260D4601280BD0012084F83C0085
:1039B0000C2A4AD007DC82B1042A20D0082A06D17A
:1039C00031E0022070BD102A53D0142A63D00126A2
:1039D000002084F83C00304670BD206804F044F9B3
:1039E0002068816941F0080181612068816921F0C6
:1039F00004018161206881692A69114311E020680E
:103A000004F080F92068816941F4006181612068D7
:103A1000816921F480618161206881692A6941EAB4
:103A200002218161D4E7206804F0B4F92068C169FB
:103A300041F00801C1612068C16921F00401C16140
:103A40002068C1692A69114311E0206804F0EAF98D
:103A50002068C16941F40061C1612068C16921F435
:103A60008061C1612068C1692A6941EA0221C1619E
:103A7000AEE7206804F01EFA2068016D41F00801ED
:103A800001652068016D21F0040101652068016D68
:103A90002A69114311E0206804F044FA2068016D9E
:103AA00041F4006101652068016D21F480610165C8
:103AB0002068016D2A6941EA0221016588E710B595
:103AC000040003D094F83D0010B107E0012010BDC0
:103AD000002084F83C00204600F022F8022084F800
:103AE0003D00211D206804F03FF8012084F84800C3
:103AF00084F83E0084F83F0084F8400084F84100D8
:103B000084F8420084F8430084F8440084F84500B7
:103B100084F8460084F8470084F83D00002010BD7A
:103B20007047704730B5044669B104290ED00829A2
:103B30000FD00C2910D0102911D094F8430001287F
:103B400010D0012030BD94F83E00F8E794F83F0013
:103B5000F5E794F84000F2E794F84100EFE794F8B5
:103B60004200ECE70220E9B3042942D0082943D0FF
:103B70000C2944D0102945D084F843000122206844
:103B800004F050F821492068214A224B884209D08C
:103B9000904207D0984205D01F4DA84202D01F4D39
:103BA000A84203D1456C45F400454564206888422D
:103BB0000CD0B0F1804F09D01949884206D019497C
:103BC000884203D0904201D0984207D18168164ABA
:103BD0001140062908D0B1F5803F05D0016841F0B9
:103BE000010100E002E00160002030BD84F83E00E9
:103BF000C4E784F83F00C1E784F84000BEE784F8DA
:103C00004100BBE784F84200B8E70000002C014007
:103C100000340140004001400044014000480140A0
:103C200000040040000800400700010010B51349DF
:103C3000044600680968884202D11148FDF718FB64
:103C4000104920680968884217D10F480188491C2B
:103C500001800E490888401C08800D490888401CD6
:103C600008800C490888401C088002F031FA01F0F5
:103C70002BF8BDE8104004F06DBD10BD68010020B8
:103C800034000020B4010020120000201C0000209D
:103C90002A0000202E000020704790F8841001298F
:103CA00018D0012180F884102421C0F88810016800
:103CB0000A680B6823F001030B6022F00051002218
:103CC0004266036819602021C0F8881080F88420BB
:103CD00010467047022070477047704770B5044621
:103CE00090F8840001281DD0012084F8840024204D
:103CF000C4F8880020680568026822F001020260AA
:103D00002068826822F060620A438260204604F0E4
:103D100021FA206805602020C4F88800002084F87B
:103D2000840070BD022070BD70B5044690F8840018
:103D300001281DD0012084F884002420C4F88800C4
:103D400020680568026822F001020260206882682B
:103D500022F060420A438260204604F0FBF92068AA
:103D600005602020C4F88800002084F8840070BD1D
:103D7000022070BD70477047704700002DE9F04188
:103D800003680446D86919689A6840F60F05284206
:103D90004FF000054FF002060AD187067ED501F0EC
:103DA000200702F0805C57EA0C0777D0616F42E190
:103DB000B64FDFF8DCC2174001EA0C0C57EA0C0CD6
:103DC0006CD05FEAC07C0CD05FEAC15C09D54FF0D3
:103DD000010CC3F820C0D4F8903043F00103C4F8BC
:103DE0009030830709D5D30707D023681E62D4F823
:103DF000903043F00403C4F8903043070AD5D3074A
:103E000008D0266804233362D4F8903043F00203CC
:103E1000C4F8903003070CD501F020033B4308D0D1
:103E2000266808233362D4F8903043F00803C4F8BE
:103E3000903003050BD54B0109D526684FF400637C
:103E40003362D4F8903043F02003C4F89030D4F8B3
:103E50009030002B3DD0800609D501F0200002F003
:103E60008051084303D0616F09B120468847D4F8D8
:103E7000900021688968490602D410F0280F2AD0E2
:103E8000204604F09BFA2068806840061ED5206812
:103E9000083050E8001F21F0400100E021E040E838
:103EA0000012002AF3D1D4F8800078B179498163F7
:103EB000D4F88000FDF7E3FF00280AD0D4F8800092
:103EC000816B00E02046BDE8F04108472046FFF73F
:103ED00053FFBDE8F0812046FFF74EFFC4F8905035
:103EE000F7E7D4F86CC02027BCF1010F7ED15FEA60
:103EF000C06C7BD55FEAC16C78D510201862206851
:103F00008068400651D5D4F880100A6850680004D3
:103F1000000C3ED0B4F85C3083423AD9A4F85E007D
:103F20000868006880062CD4206850E8001F21F43F
:103F3000807140E80012002AF6D12068083050E86D
:103F4000001F21F0010140E80012002AF5D120688D
:103F5000083050E8001F21F0400140E80012002A1C
:103F6000F5D1C4F88C70E566206850E8001F21F098
:103F7000100140E80012002AF6D1D4F88000FDF7C5
:103F800049FF2667B4F85C00B4F85E10401A81B2AD
:103F900007E0B4F85C1081429BD11068800698D588
:103FA00026672046FFF798FE93E7B4F85C00B4F864
:103FB0005E10401A81B2B4F85E00002889D0002952
:103FC00087D0206850E8002F22F4907240E8002348
:103FD000002BF6D12D4BDB432068083050E8002F32
:103FE0001A4040E8002CBCF1000F00E00EE0F3D1D5
:103FF000C4F88C70E5666567206850E8002F22F0F1
:10400000100240E80023002BF6D1C9E7C60209D50B
:10401000560207D54FF4801018622046BDE8F041E3
:10402000FFF7A9BE03060AD501F0800302F40002DF
:10403000134304D0A16F00297FF444AF49E742063F
:1040400011D54A060FD52046016851E8002F22F00D
:10405000400241E80023002BF6D1C0F88870856744
:1040600000F0FAF835E7020206D54A0004D52046EA
:10407000BDE8F041FFF77EBEC00195D5002993DA77
:104080002046BDE8F041FFF728BE00000100001007
:10409000200100040D83000810B5040003D0D4F8FB
:1040A000880010B107E0012010BD002084F88400D2
:1040B000204600F027F82420C4F888002068016812
:1040C00021F001010160A06A10B1204604F064F8FB
:1040D000204604F0B5F90128E6D02068416821F4B3
:1040E000904141602068816821F02A018160206848
:1040F000016841F0010101602046BDE8104004F074
:10410000AFB8000070B598B00646142111A8FCF7AE
:10411000B7F844216846FCF7B3F82649306888426E
:1041200045D101200025CDE900056846FEF7E0F9FC
:1041300008B1FCF74BFD2049086E40F4804008664A
:10414000086E00F480401690C86C40F00200C8640D
:10415000C86C11A900F002001690C0201190022036
:10416000CDE9120503201490072015901348FDF7A0
:10417000D7FF144C12482060192060601020C4E959
:1041800002058020C4E90405A561E5612046256299
:10419000FDF70EFF08B1FCF719FDF46700220321BB
:1041A0002520A662FEF70CF92520FEF7FBF818B0D3
:1041B00070BD0000003801400010024000040048BB
:1041C0001C0002404003002070B50446D0F888006F
:1041D000202801D0022070BD39B332B32165A4F884
:1041E0005420A4F856200021C4F890102120C4F8CF
:1041F0008800E06FD8B1154BC362E36F14481863B1
:10420000E36F14485863E06F134681632068E56FDD
:1042100000F128022846216DFDF72AFF38B1102051
:10422000C4F890002020C4F88800012070BD2168E7
:10423000402008622068083050E8001F41F08001EB
:1042400040E80012002AF5D1002070BD71830008FB
:10425000B3830008218300087047704710B5817848
:1042600090ED091A012290ED080AB6EE003A0023FB
:1042700041BB70EE410A8188491C60EE830A89B215
:104280008180C0ED050AF5EEC00AF1EE10FA03D206
:10429000F1EE600AC0ED050A42F6A004F1EE040A50
:1042A000A14238D30C1BC82C35D3C83C0A2C0AD2E7
:1042B000C0ED040AD0ED020AD0ED051A70EEA10A95
:1042C000C0ED020A38E0A1F52454723CDFED400A4B
:1042D000C82C20D3C83CF9EE041AC82C02D2C0ED79
:1042E000041A29E0A1F52C54023C0A2C0AD2C0ED94
:1042F000041AD0ED030AD0ED051A70EEA10AC0ED44
:10430000030A19E0A1F52C540C3C04D0A1F52C545F
:104310000D3C03D010E0C0ED040A0DE082708380F4
:10432000D0ED030AD0ED021AF4EEE10AF1EE10FA34
:1043300001DD427000E0437070EE010A60EE830A16
:10434000C0ED0A0AD0ED0B0A90ED0C1A30EE811A7E
:1043500021EE031A80ED0D1A80ED090AC0ED0C0A5A
:10436000D0ED101AC0ED111AD0ED140AC0ED150AE7
:10437000D0ED0E2A90ED0F0A32EEC00A20EE030AAD
:1043800080ED100A90ED122A90ED131A32EE411AC8
:1043900021EE031A80ED141AC0ED0F2A80ED132AC6
:1043A000017E59B1012908D131EEC00A80ED160A0B
:1043B00030EEC10A80ED170A037610BD30EE610AB7
:1043C00080ED160A31EE600A80ED170A027610BD04
:1043D00000000000FEE7000070B5444C04F1B0009E
:1043E00094ED220A054684ED2C0A94ED230A84ED0F
:1043F0002D0AFCF7C9FA04F1C80194EDDA0A081F86
:10440000FCF71EFA284602F027FD94ED330A04F566
:10441000287084EDB00A94ED340A84EDB30A94ED6B
:104420002F0A84EDB60A94ED300A84EDBA0AFFF73C
:1044300015FF94F8A20218B994EDAC0A84ED520A63
:1044400094F8A102012815D1002084F8A10294ED6E
:10445000D70ADFED270A274930EE200A10EE100AAE
:1044600084EDD70A884205DDDFED230A30EE600ACD
:1044700084EDD70A214994EDDA0A081FFCF7E0F928
:1044800094EDBF0A1D4884EDD40A94EDBE0A283885
:10449000B1EE400A84EDD50A02F082FC94EDB50A33
:1044A000174884ED450A94EDB20A84ED530A02F0F0
:1044B00032FC1348383002F02EFC94ED460A2846B0
:1044C00084ED3A0A94ED540AD4EDAF0A30EE200A96
:1044D00084ED390A00F082FB94ED250A284684ED2C
:1044E0003D0ABDE87040FCF7ADB80000B004002004
:1044F000DA0F4940DB0FC940DB0FC940200800201C
:10450000B405002070B5A44C2DED028B94ED250A66
:10451000DFEDA20A04F5067020EE200A84ED9B0A66
:1045200094ED840A84ED880A03F058FD94ED030AA3
:1045300004F5187084ED990A94ED060A84ED9A0A40
:1045400094ED2F0A84ED9C0A94ED300A84ED9D0AC7
:1045500094ED3B0A84EDA00A94ED3C0A84EDA10A97
:1045600002F04CFD94F8180284F8000394EDA30ABD
:1045700004F5407084EDC20A94EDA50A84EDC30AE7
:1045800002F00EFC04F54A7194EDC80A081FFCF70E
:1045900057F994F8A00200269FED818A012845D1A1
:1045A00094ED330A04F5287084EDB00A94ED340AD2
:1045B00084EDB30A94ED2F0A84EDB60A94ED300A27
:1045C00084EDBA0AFFF74AFE94F8A20218B994EDF6
:1045D000AC0A84ED520A94F8A102012812D184F8A1
:1045E000A16294EDD70ADFED6F0A6F4930EE200A21
:1045F00010EE100A84EDD70A884203DD30EE480A37
:1046000084EDD70A694994EDDA0A081FFCF718F916
:1046100094EDBF0A654884EDD40A94EDBE0A2838AB
:10462000B1EE400A84EDD50A02F0BAFB94EDE20A3D
:10463000C0EE080A9FED5E0A5C4D9035A5F11400AE
:1046400060EE800AC5ED000AD4EDDA0AC5ED020A73
:10465000D4EDD00A80EE881A21EE000A85ED030A17
:1046600094EDC80A85ED050A94ED8D0A84EDFE0AE5
:1046700000F08CF995ED080AF1EE0C0A80EE201A94
:1046800084ED831AB4F8E801401C80B2A4F8E80174
:1046900002280FD3A4F8E861D4ED8D0AA5F52370A4
:1046A000C4ED600A84ED610A02F035FB94ED620A04
:1046B00084ED440A94ED220A374884ED2C0A94EDE7
:1046C000230AB03084ED2D0A0646FCF75DF9324925
:1046D00095ED090AC831081FFCF7B2F8304602F020
:1046E000BBFB94ED330AD4ED370AF7EE001A94EDD4
:1046F000351A20EE200A71EEE00A01EE200A84ED60
:10470000350AD4ED340A94ED381A94ED362A60EE69
:10471000810A31EEC11A42EE010AC4ED360A94F85C
:10472000A002C8B194EDB50A84ED450A94EDB20A31
:10473000204884ED530A02F0EEFA1E48383002F0A9
:10474000EAFA94ED460A84ED3A0A94F8A0020128A8
:1047500005D094ED540A0BE0C4ED450AE8E794F85F
:10476000B80294ED540AD4EDAF0A88B130EE600A75
:10477000304684ED390A00F031FA94ED250A3046CE
:1047800084ED3D0ABDEC028BBDE87040FBF75ABFDB
:1047900030EE200AECE70000B004002036CD133FD5
:1047A000DB0FC940DA0F4940DB0FC9402008002069
:1047B00000007042B405002070B5694C69492DEDC8
:1047C000028BB4F8AA0000EE100AF8EE400AB6EE2A
:1047D000000A20EE800A10EE100A84ED840A884256
:1047E00008DC10EE100A6049884203D89FED5F0A8A
:1047F00084ED840A84ED880A5D4803F0EFFBB4F889
:10480000E801401C80B2A4F8E80100259FED598A18
:10481000022817D3A4F8E85194ED8D0A84ED600ABC
:10482000D4EDE20A80EE880ADFED530A5048A4383E
:1048300020EE200A84ED610A02F06DFA94ED620A1E
:1048400084ED440A94ED220A454884ED2C0A94ED47
:10485000230AB03084ED2D0A0646FCF795F840494E
:1048600094EDDA0AC831081FFBF7EAFF304602F080
:10487000F3FA94ED330A3E4884EDB00A94ED340A1D
:10488000883084EDB30A94ED2F0A84EDB60A94EDD6
:10489000300A84EDBA0AFFF7E1FC94F8A20218B9D5
:1048A00094EDAC0A84ED520A94F8A102012812D1C9
:1048B00084F8A15294EDD70ADFED300A304930EE8A
:1048C000200A10EE100A84EDD70A884203DD30EE8C
:1048D000480A84EDD70A2B4994EDDA0A081FFBF742
:1048E000AFFF94EDBF0A274884EDD40A94EDBE0AC9
:1048F0002838B1EE400A84EDD50A02F051FA94ED61
:10490000B50A214884ED450A94EDB20A84ED530AB4
:1049100002F001FA1C48383002F0FDF994ED460A25
:1049200084ED3A0A94F8B80294ED540AD4EDAF0A33
:10493000012811D030EE600A304684ED390A00F0CB
:104940004DF994ED250A304684ED3D0ABDEC028B0D
:10495000BDE87040FBF776BE30EE200AECE70000C1
:10496000B00400200000A0400000A0C00000000033
:10497000C8060020DB0FC94000007042DA0F494032
:10498000DB0FC94020080020B405002070B5D0ED31
:10499000053A0446B7EE004AF0EEE31AC0ED061AF7
:1049A00090ED083AB0EEC30A80ED090AD0ED030A93
:1049B000B0EEE01A80ED041AD0ED072A90ED0A2A35
:1049C00072EEC20AC0ED0B0A10EE900AB0F17C5FE5
:1049D00001DD70EEC40A10EE900AC4ED0B0AB0F1CE
:1049E0003F4F01D970EE840A764A10EE901AC4ED5A
:1049F0000B0AB4F93000914201DC401C00E0401E7B
:104A000000B22086D4ED000A01219FED6F4AF4EE3A
:104A1000E01A0026F1EE10FA6C4D04D9B4EEE01A5B
:104A2000F1EE10FA0CD885F8A01294ED050A84ED89
:104A30000D0A94ED070A84ED0E0A84F8406039E00F
:104A4000B4EEE01AF1EE10FA06DDD4ED024AB4EE4F
:104A5000E41AF1EE10FA15D3F4EEE01AF1EE10FAC2
:104A60003FDD94ED021AF4EEC11AF1EE10FA38D2DD
:104A7000B4EEE00AF1EE10FA33DDB4EEC10AF1EE65
:104A800010FA2ED294F8401071B19FED510A6428AB
:104A90001CDBC4ED0D3AC4ED0E2AD5EDAF0A30EEA5
:104AA000C00A85EDAF0A78E0642808DB84ED0D3A92
:104AB00084ED0E2A95EDAF0A30EE440AF1E71E2888
:104AC0006BDCC4ED0D3AC4ED0E2A66E01E2864DCF2
:104AD00084ED0D3A84ED0E2AD5EDAF0A30EE800A52
:104AE000DFE7D4ED020A94ED011AB0EE082AF0EEE9
:104AF000601A41EE021AF4EEC01AF1EE10FA02D278
:104B000085F8A0623EE0F0EE041A41EE210AF4EED0
:104B1000C00AF1EE10FA31DD85F8A012D4ED0D0ACD
:104B200094ED121AB0EEE00AB0EEC11A30EE410A6E
:104B300084ED110AB5EEC00AC4ED120AF1EE10FAC6
:104B400009D2F0EEC00A10EE900A2249884202DD36
:104B500094ED130A0FE0B5EEC00AF1EE10FA11DD84
:104B6000B0EEC00A10EE100A1B4988420ADA95ED31
:104B7000AF0A30EE440A85EDAF0A03E095F8A002D3
:104B800085F8A00294ED080A022084ED0D0A94ED48
:104B90000A0A84ED0E0A84F8400094ED131AD4ED4D
:104BA000140A95EDAF0A02F08AFB85EDAF0AB4F95D
:104BB0003000782802DD7920208670BD0028FCDCDA
:104BC000268670BDCDCC4C3D17B75139B0040020BE
:104BD0000AD7A33C0000604200006041D0ED0D0AFE
:104BE000D0ED061A90ED0E1A90ED050A20EEA12ADE
:104BF00001EE402A21EE211A00EE801A80ED0F2AE4
:104C000080ED101A70470000F0B50020214D0226FB
:104C10000127AB1C044603EB80014A7822B1012A2C
:104C200008D0022A31D12BE013F820200ABB4C8097
:104C30004F702AE013F8202032B14988322924D855
:104C4000A8B1012816D020E04A88521C92B24A80AE
:104C5000322A1AD310B1012803D016E02E705E70EC
:104C600013E0042129700B49891C4E710DE02F704F
:104C70005C700AE0032129700649891C4C7104E02C
:104C800013F82020012A00D14C70401CC0B2022829
:104C9000C1D3F0BD1E00002010B54FF400710748CD
:104CA000FDF716FB064C4FF4805120700548FDF7C8
:104CB0000FFB2071BDE81040FFF7A6BF00080048B9
:104CC000200000200004004810B5094C20880A2864
:104CD00005D014280AD1FFF7DFFF0A2005E060881D
:104CE000642803D3002060801420208010BD0000C1
:104CF000280000202DE9F04106461D4617460C46C7
:104D00002A2001F0C9F8304601F0BCF8384601F01D
:104D1000B9F82B2001F0C0F81834A0B201F0B2F8B5
:104D20001835A8B201F0AEF8BDE8F0412C2001F032
:104D3000B3B808B500205023A0220146009000F02F
:104D400077FB08BD08B500F0BDFB0A480090422380
:104D50003D2207212F2001F04EF840F2DC50FDF7F4
:104D6000CDF900205023A0220146009000F060FB06
:104D700008BD0000DEC800082DE9FE43EC4F00240A
:104D80001025B8784FF6FF76401CC0B2B8700128E5
:104D90007ED14FF47840CDE900053346E5A20021ED
:104DA0000294402000F040FD48F21F48CDE9004544
:104DB0004346E2A200216020029401F046F8CDE9CA
:104DC00000454346DEA200219820029401F03DF800
:104DD0004FF6E070CDE900050023DAA2102102941D
:104DE000402000F021FDCDE900454346D3A210212B
:104DF0006020029401F029F8CDE900454346D3A292
:104E000010219820029401F020F847F67C50CDE95B
:104E100000053346CEA220210294402000F004FD7C
:104E2000CDE900454346C5A220216020029401F04F
:104E30000CF8CDE900454346C7A2202198200294F2
:104E400001F003F84FF4FC60CDE900050023C3A294
:104E500030210294402000F0E7FCCDE900454346B4
:104E6000B6A230216020029400F0EFFFCDE90045AA
:104E70004346B9A230219820029400F0E6FF0023B7
:104E80003C2219461846009600F078FA1F2300E0ED
:104E900053E03C2200211046009600F06FFA0022F9
:104EA0001E2311461046009600F068FA1E233C228D
:104EB00019460020009600F061FA01233B221946B2
:104EC0001846009600F05AFA3B221E230121104694
:104ED000009600F053FA01221D2311461046009659
:104EE00000F04CFA1D233B2219460120009600F0E9
:104EF00045FA0721CDE9004533469AA208460294B7
:104F000000F0A3FFCDE90045334698A220210420FC
:104F1000029400F09AFFCDE90045334694A2302177
:104F20000420029400F091FFCDE90045334691A2A0
:104F300040210420029400F088FFB878022873D33F
:104F40000220B8704FF6F347DFF830820097CDE9C2
:104F5000014598ED030ADFED8A0A0423202120EEA3
:104F6000200ABCEEC00A10EE100A82B21A2000F02D
:104F700003FF0097CDE9014598ED040ADFED810AB2
:104F80000423302120EE200ABCEEC00A10EE100AE5
:104F900082B21A2000F0F0FECDE9004598ED250A16
:104FA0003B4604220021702000F096FE98ED340A62
:104FB000CDE900453B46B5EEC00A0294F1EE10FA89
:104FC0000BD271A21021682000F03FFFCDE900450F
:104FD00098ED340AB1EE400A08E06CA21021682076
:104FE00000F033FFCDE9004598ED340A3B4604223A
:104FF0001021702000F070FE98ED830ACDE9004585
:105000003B46B5EEC00A0294F1EE10FA0DD25EA254
:105010002021682000F019FF0097CDE9014598EDA7
:10502000830AB1EE400A0AE054E058A22021682029
:1050300000F00BFF0097CDE9014598ED830A0523A9
:105040002021BCEEC00A10EE100A82B2702000F0DF
:1050500093FED8F85802CDE9004500283B4602945B
:105060000BDA49A23021682000F0EFFE98ED960A95
:10507000F8EEC00A9FED461A0AE044A230216820EB
:1050800000F0E3FE98ED960AF8EEC00A9FED411A93
:105090003B46042280EE810A30217020CDE9004594
:1050A00000F01AFE98F80000B0B103281ED00428C2
:1050B00020D005280ED198F80200072834D00B28FC
:1050C00008D1002334A20096CDE9015440210846BE
:1050D00000F0AAFBBDE8FE830096CDE90154402113
:1050E000002331A2084600F0B0FEF3E7002331A20E
:1050F0000096E9E798F80200012809D002280BD0B1
:1051000003280DD00428E5D100232EA20096DBE76A
:10511000002330A20096D7E7002332A20096D3E7FF
:10512000002334A20096CFE7002336A20096CBE7F7
:1051300016000020B5E7D1B9000000003A000000D9
:1051400056000000B5E7C1F7000000004100000074
:10515000CBD9B6C80000000052000000CEBBD6C3B9
:1051600000000000485320464F43000052533A00CD
:105170004C443A005354415455533A00B004002073
:1051800000007A44002474492D0000002000000033
:1051900000FC7FC600FC7F46B8DFC6B5D7A2C8EBCF
:1051A000BBACC4A4000000004144435F43414C49F0
:1051B00042000000B5E7BBFAB2CECAFDB1E6CAB6FE
:1051C00000000000D3D0B8D0CEBBD6C3B1D5BBB79A
:1051D00000000000D3D0B8D0B5E7C1F7BFAABBB775
:1051E00000000000D3D0B8D0B5E7C1F7B1D5BBB748
:1051F00000000000D3D0B8D0CBD9B6C8B1D5BBB76A
:1052000000000000CEDEB8D0C7BFCDCFBBACC4A479
:10521000000000002DE9FE433D4E00241025F078EB
:105220004FF6FF77401CC0B2F070012852D1CDE993
:1052300000453B4637A208210620029400F0F4FA0C
:10524000CDE900453B4634A218210620029400F027
:10525000EBFACDE900453B4630A228210620029416
:1052600000F0E2FACDE900453B462DA238210620A8
:10527000029400F0D9FA4FF6F348CDE900454346D1
:1052800028A200214020029400F0CEFACDE900458A
:10529000434628A210214020029400F0C5FACDE92F
:1052A0000045434627A220214020029400F0BCFA8A
:1052B000CDE90045434627A230214020029400F06A
:1052C000B3FA4021CDE90045434626A208460294A0
:1052D00000F0AAFAB078022817D30220B070CDE906
:1052E0000045029496F900003B4681B221A21E209F
:1052F00000F0ABFDCDE90045029496F901003B4674
:1053000081B21DA21E2000F0A0FDBDE8FE830000BA
:1053100016000020C4A30000CABD0000C7D00000D2
:10532000BBBB0000D3D0B8D0B5E7C1F7B1D5BBB790
:1053300000000000D3D0B8D0CBD9B6C8B1D5BBB728
:1053400000000000D3D0B8D0CEBBD6C3B1D5BBB718
:1053500000000000CEDEB8D0C7BFCDCFBBACC4A428
:1053600000000000B8DFC6B5D7A2C8EBBBACC4A430
:10537000000000002D2D3E00202020002DE9FE4FD2
:105380000026A2EB000882465F1A701E3546894649
:10539000B8F1000F02DD4FF0010102E003D14FF040
:1053A0000001019102E0C8F100080190002F02DD28
:1053B0004FF0010002E003D14FF00000009002E046
:1053C000C7F1000700904046B84501DD044600E003
:1053D0003C46601C4FF0000B029016E01FFA89F16A
:1053E0001FFA8AF00C9A00F015F846443D44A64294
:1053F00002DD0199361B8A44A54202DD00992D1B6E
:1054000089440BF101001FFA80FB02998B45E5DB13
:10541000BDE8FE8F10B514460B460246FFF76AFC46
:10542000200A00F053F9E0B2BDE8104000F04EB998
:105430002DE9F047804608981F464FEA102A00F0F1
:10544000FF09581E83B21646501E82B20D464046D2
:10545000FFF750FC0DE0444607E0504600F030FDF9
:10546000484600F02DFD641CA4B2B442F5D36D1C77
:10547000ADB2BD42EFD3BDE8F04700F001B8000087
:1054800070B50D4C2088002815D04FF400454FF022
:105490009046002229463046FCF727FF0A2322883F
:1054A00006490748FDF76CFD012229463046FCF706
:1054B0001CFF0020208070BD14000020A0030020ED
:1054C0000401002038B5804D4FF4006400222146CD
:1054D0002846FCF70AFF6420FCF710FE0122214653
:1054E0002846FCF702FFC820FCF708FE112000F058
:1054F000D3FC7820FCF702FE202000F0CDFCB12088
:1055000000F0CAFC052000F0E1F83C2000F0DEF8D5
:105510003C2000F0DBF8B22000F0BEFC052000F0DB
:10552000D5F83C2000F0D2F83C2000F0CFF8B320B2
:1055300000F0B2FC052000F0C9F83C2000F0C6F8ED
:105540003C2000F0C3F8052000F0C0F83C2000F03B
:10555000BDF83C2000F0BAF8B42000F09DFC032018
:1055600000F0B4F8C02000F097FCAB2000F0AEF8DB
:105570000B2000F0ABF8042000F0A8F8C12000F0E8
:105580008BFCC52000F0A2F8C22000F085FC0D20A5
:1055900000F09CF8002000F099F8C32000F07CFC9B
:1055A0008D2000F093F86A2000F090F8C42000F0FD
:1055B00073FC8D2000F08AF8EE2000F087F8C520FB
:1055C00000F06AFC0F2000F081F8E02000F064FC9D
:1055D000072000F07BF80E2000F078F8082000F09B
:1055E00075F8072000F072F8102000F06FF807201F
:1055F00000F06CF8022000F069F8072000F066F86F
:10560000092000F063F80F2000F060F8252000F07A
:105610005DF8362000F05AF8002000F057F8082016
:1056200000F054F8042000F051F8102000F04EF87B
:10563000E12000F031FC0A2000F048F80D2000F0D5
:1056400045F8082000F042F8072000F03FF80F204E
:1056500000F03CF8072000F039F8022000F036F89E
:10566000072000F033F8092000F030F80F2000F098
:105670002DF8252000F02AF8352000F027F800202A
:1056800000F024F8092000F021F8042000F01EF8B2
:10569000102000F01BF83A2000F0FEFB052000F07F
:1056A00015F8362000F0F8FBA82000F00FF80020D5
:1056B0005023A02201460090FFF7BAFEBDE8384013
:1056C000292000F0E9BB00000008004831B54FF484
:1056D00000444FF09045002221462846FCF705FE85
:1056E00001231A4669460448FDF74AFC0122214677
:1056F0002846FCF7FAFD38BD040100202DE9FF4FD4
:1057000083B00746DDF8449000904FEA590A4FF005
:1057100000085FEA4A7000D0012000EBDA0000FBCD
:1057200009F00499019001EB0900401E83B2203A70
:1057300007EB0A0002F0FF0B401E82B23846FFF76B
:10574000D9FA002559E0B9F10C0F28D0B9F1100FA2
:105750002BD0B9F1180F2CD0B9F1200F58D12E4908
:1057600001EB8B100024465D129800284FF00100D9
:1057700000FA04F000EA060021D020B13846069A6B
:105780000499FFF747FE7F1C0098BFB2391A5145B4
:105790002DD10498009F401C80B204902BE01F493B
:1057A0000BEB4B0001EB8000DCE71D4901EB0B101C
:1057B000D8E71C490BEB4B0001EB0010D2E728B1F6
:1057C0000698000A00F07CFB069804E01098000A96
:1057D00000F076FB1098C0B200F072FB08F10100F7
:1057E000C0B2B0FBFAF280460AFB128068B1641CBA
:1057F000E4B2082CB8D36D1CADB201988542A2D397
:1058000007B0BDE8F04FFFF73BBE4FF00008F2E7EE
:1058100007B0BDE8F08F000058A5000824890008F3
:10582000988D0008889300082DE9FE4F9946DDE920
:105830000D4517468A4680460C9E15E00C2C18D064
:10584000102C20D0182C28D0202C10D100964B469C
:105850003A4651464046CDE9014500F0B9F908EB1A
:1058600004001FFA80F8BF1C38780028E6D1BDE894
:10587000FE8F00964B463A4651464046CDE90145DB
:1058800000F016F8EBE700964B463A465146404684
:10589000CDE9014500F092F8E1E700964B463A4623
:1058A00051464046CDE9014500F00CF9D7E700002C
:1058B0002DE9FF4F85B00546139F002600908B46CB
:1058C000780700D0012000EBD70078430290162023
:1058D00003900020824600EB800101EBCA003649AC
:1058E000079A11F810301278934258D101EB40001A
:1058F0000190417807984078814250D10BEB070026
:10590000401E83B2E819401E82B259462846FFF76E
:10591000F1F900203DE00198002400EB08091498FB
:1059200099F8021000284FF0010000FA04F001EA93
:10593000000111D021B159462846089AFFF76AFDA7
:105940006D1C0098ADB2281AB8421BD10BF10100B2
:105950001FFA80FB009D19E029B10898000A00F0A9
:10596000AFFA089804E01298000A00F0A9FA129819
:10597000C0B200F0A5FA761CF6B2B6FBF7F007FB52
:105980001060B0B1641CE4B2082CC8D308F1010067
:10599000C0B2029980468842BDD3FFF771FD0AF17B
:1059A000010080B203998246884294D309B0BDE8D1
:1059B000F08F0026EAE7000018BD00082DE9FF4F30
:1059C00085B00546139F002600908B46780700D0CF
:1059D000012000EBD700784302902C204FF0000A02
:1059E00003903749079A0AEB0A1011F81030127821
:1059F000934258D101EB40000190417807984078DC
:105A0000814250D10BEB0700401E83B2E819401EC3
:105A100082B259462846FFF76DF900203DE0019813
:105A2000002400EB0809149899F8021000284FF0A0
:105A3000010000FA04F001EA000111D021B1594639
:105A40002846089AFFF7E6FC6D1C0098ADB2281AAC
:105A5000B8421BD10BF101001FFA80FB009D19E039
:105A600029B10898000A00F02BFA089804E012986F
:105A7000000A00F025FA1298C0B200F021FA761C54
:105A8000F6B2B6FBF7F007FB1060B0B1641CE4B2ED
:105A9000082CC8D308F10100C0B2029980468842A0
:105AA000BDD3FFF7EDFC0AF1010003991FFA80FA5C
:105AB0008A4596D309B0BDE8F08F0026EAE70000DA
:105AC00054BF00082DE9FF4F85B00546139F0026FF
:105AD00000908B46780700D0012000EBD700784378
