:020000040800F2
:10000000B00A0020F1010008615F00088D4100087E
:10001000A15A0008C5040008017B00080000000088
:10002000000000000000000000000000C5630008A0
:100030006F0A00080000000003610008716F0008EB
:100040000B0200080B0200080B0200080B0200085C
:100050000B0200080B0200080B0200080B0200084C
:100060000B0200080B0200080B020008B50900088B
:10007000C10900080B0200080B0200080B0200086F
:100080000B02000800000000FD0200080B0200083F
:100090000B0200080B0200080B0200080B0200080C
:1000A0000B020008ED6F00080B0200080B020008AD
:1000B000F96F00080B0200080B0200080B02000891
:1000C0000B0200080B0200080B0200080B020008DC
:1000D0000B020008F57A00080B0200080B0200086A
:1000E0000B0200080B0200080B0200080B020008BC
:1000F0000B0200080B0200080B02000800000000C1
:10010000000000000B020008000000000B020008C5
:100110000B020008000000000B0200080B020008A0
:100120000B0200080B0200080B0200080B0200087B
:100130000B02000800000000000000000B02000895
:100140000B0200080B020008000000000000000085
:10015000000000000000000000000000000000009F
:100160000000000000000000000000000B0200087A
:100170000B0200080000000000000000000000006A
:10018000000000000B02000800000000000000005A
:10019000000000000000000000000000000000005F
:1001A00000000000000000000B0200080B02000825
:1001B0000B0200080B0200080B0200080000000000
:1001C000000000000B02000800000000000000001A
:1001D0000B0200080B020008DFF810D000F07CF8DA
:1001E00000480047D17B0008AFF30080B00A002030
:1001F0000648804706480047FEE7FEE7FEE7FEE7C1
:10020000FEE7FEE7FEE7FEE7FEE7FEE7DD6F00083C
:10021000D90100082DE9F05F0546002092469B4673
:1002200088460646814640241BE02846414647460C
:10023000224600F041F853465A46C01A914110D365
:1002400011461846224600F028F82D1A67EB0108DF
:100250004F4622460120002100F01FF817EB00094D
:100260004E41201EA4F10104DFDC484631462A46F7
:100270004346BDE8F09FD2B201E000F8012B491ED1
:10028000FBD270470022F6E710B513460A46044633
:100290001946FFF7F0FF204610BD202A04DB203A64
:1002A00000FA02F1002070479140C2F1200320FAC9
:1002B00003F3194390407047202A04DB203A21FAC7
:1002C00002F00021704721FA02F3D040C2F120026F
:1002D0009140084319467047064C074D06E0E06818
:1002E00040F0010394E8070098471034AC42F6D37D
:1002F000FFF776FFC8DD0008E8DD0008014801F0DF
:10030000F1B900003800002010B5846AE16D11F0E9
:10031000500F06D0E16DC90625D5204601F0E0F961
:1003200010BDE06D40F40070E065206801680907C9
:1003300016D505F05FF878B12068C0688004002801
:100340000ADBE06D20F48070E065E06DC00403D44A
:10035000E06D40F00100E065204601F0BFF910BDFE
:10036000C0688007EBE7616D496BBDE81040084746
:1003700010B5806AC16D41F04001C165016E41F068
:100380000401016601F0ACF910BD10B5806A01F0FE
:10039000A6F910BD70B5044600688168C1F3400538
:1003A00005F018F848B345BB2068816801F00D01DD
:1003B000012914D18168124A1140891C8160216889
:1003C0000320086001F028FF054612E001F024FF39
:1003D000401B02280DD920688068C00709D0E06D55
:1003E00040F01000E065206E40F001002066012022
:1003F00070BD20688068C007E8D1002070BD000093
:10040000C0FFFF7FF8B5044600200090206804F08C
:10041000E1FFE8BB20688168214A11422ED1816842
:10042000D6433140491C81601E48806800F0E0706E
:1004300000020DD51C481D490068B0FBF1F0401CBE
:1004400000EB4000800000E0401E00900028FBD13F
:1004500001F0E2FE05461CE004F0BCFF20B9206874
:1004600081683140491C816001F0D6FE401B0228A2
:100470000FD920680068C043C0070AD0E06D40F083
:100480001000E065206E40F0010020660120F8BDFC
:1004900004E020680168C943C907DDD10020F6E700
:1004A0003F000080000300500C000020400D0300BE
:1004B00003688B4201DD194600E00160914200DBD8
:1004C00002607047FEE74288002192B1B2F5806F6A
:1004D00015D28269816811448160026A0169114400
:1004E000016142694168114441604188491C418071
:1004F000704741708160016141604180E9E7826835
:10050000921282600269921202614268921200EEB7
:10051000102A4260D0ED0F0AB8EEC00A20EE200A81
:1005200080ED0D0A418001214170704790ED050A70
:10053000D0ED0F0AB8EEC00A20EE200A80ED0C0ABA
:10054000D0ED0D0A30EE600A80ED0E0A7047027899
:100550008168012A426801D18A1A4260438AD21A0C
:1005600083785A4392FBF1F301FB1322C260002A05
:1005700001DA1144C160704782688169D0ED100AC8
:100580008A1A90F900104A4300EE102AB8EEC00A09
:1005900020EE200A80ED090A0369026AB1EE400AE2
:1005A000D21A4A4301EE102AB8EEC11A61EE200AAF
:1005B000C0ED0B0A30EE600A80ED0A0A7047D0E900
:1005C00001128A1AC0E9021200EE102A4188F6EEE2
:1005D000000AB8EEC01A00EE101AB8EE400A20EE7B
:1005E000200AB4EEC01AF1EE10FA01DB521AC26012
:1005F00000EE102A4B42B8EEC01A00EE103AB8EEE8
:10060000C00A20EE200AB4EEC01AF1EE10FA01D8AA
:100610001144C160D0E90321114401617047000019
:1006200030B59FED7A3AD0ED100AD0ED0F1ADFED1C
:10063000783AF6EE002A21EEA30A00EEE20A9FEDD8
:10064000751AF5EEC00A21EE811A00EEE21AF1EEFB
:1006500010FA01DD012300E00023B5EEC00AF1EE3F
:1006600010FA01DD012200E00022B5EEC01AF1EE21
:1006700010FA01DD012100E00021890001EB4201B7
:10068000CC18B0F8481000EE101AB8EE400A9FEDF2
:10069000621A90ED112A072C20EE010A20EE201A92
:1006A00060EEA30AFFEE083A81EE020AB7EE081ADE
:1006B00061EEA33A21EE814A01EE101A01EE901A82
:1006C000B8EE411AF8EE611A24EE014A63EEA13A3F
:1006D00001EE101A01EE901AB8EE411AF8EE611A06
:1006E00000EE814A40EEA13A84EE021AC3EE821A6D
:1006F00021D2DFE804F020071B04110C1600F1EEF4
:10070000610A1CE0F0EE610AB0EE410A17E0F0EE7B
:10071000400AB1EE410A12E0F1EE400AB0EE610A81
:100720000DE0F1EE410AB1EE610A08E0F0EE410A97
:10073000B1EE400A03E0F0EE430AB0EE430AB0F82F
:100740004A2030EE801A01EE902AF8EE611AB4EEDB
:10075000E11AF1EE10FA0FDD01EE902AF8EE611ABF
:1007600061EEA01AC1EE810A01EE902AF8EE611A3C
:1007700061EE801A81EE810A01EE101AF5EE001A80
:10078000072CB8EE411A31EE601A31EE401A21EE14
:10079000211ABCEEC11A11EE101A8AB201EE102A0B
:1007A000B8EE411A00EEA21AFCEEC10A10EE901A41
:1007B00089B200EE901AF8EE600A40EE220ABCEE12
:1007C000E00A10EE103A9BB205D2DFE804F004080C
:1007D0001A04110D150020F84C2F418002E020F87A
:1007E0004C1F4280838030BD20F84C3F42800BE09C
:1007F00020F84C3F418002E020F84C1F438082806B
:1008000030BD20F84C2F4380818030BD00000000B7
:100810002DB25D3F2DB25DBF2DB2DD3F37B5144621
:100820000D4640F6FF7200216846FFF741FE9DED40
:10083000000AF5EE000A374AB8EEC00A20EE200A98
:10084000BDEEC00A10EE100A009010F4407109D0FD
:10085000B1F5807F14D0B1F5007F30D0B1F5407F85
:100860001ED142E0C0B232F8100000EE100AB8EE1D
:10087000400A85ED000A0098C0B2C0F1FF0042E0D6
:10088000C0B2C0F1FF0032F8100000EE100AB8EE5E
:10089000400A85ED000A0098C0B21EE084ED000A0F
:1008A000D5ED000A9FED1C0A60EE800AC5ED000A36
:1008B000D4ED000A20EE800A84ED000A3EBDC0B2ED
:1008C00032F81000404200EE100AB8EEC00A85ED82
:1008D000000A0098C0B2C0F1FF0032F81000404298
:1008E00000EE100AB8EEC00AD8E7C0B2C0F1FF00AF
:1008F00032F81000404200EE100AB8EEC00A85ED52
:10090000000A0098C0B232F8100000EE100AB8EEEB
:10091000400AC3E7C6DB000840DAFF37D0E902121D
:100920008A1AC0E9031200EE102A8188F6EE000A46
:10093000B8EEC01A00EE101AB8EE400A20EE200AF7
:10094000B4EEC01AF1EE10FA01DB521A026100EEA9
:10095000102A4B42B8EEC01A00EE103AB8EEC00AA8
:1009600020EE200AB4EEC01AF1EE10FA01D81144BC
:10097000016190ED040AD0ED050AB8EEC00A20EE40
:10098000200A80ED060A704790ED000ADFED070AA5
:1009900080ED030A9FED061A20EE200AD0ED010A31
:1009A00000EE810A80ED040A704700003ACD133F43
:1009B00039CD933F014801F030BA00008002002099
:1009C000014801F02ABA0000E00200200D49026847
:1009D0008A4201D20C4901E00B492031D2B21423E2
:1009E000083AB2FBF3F2436C02F01F0223F0030358
:1009F0001944816404498031C16401219140016539
:100A00007047000008040240000802400179074ACC
:100A100002EB81024265054A4432491E826501F0BB
:100A20001F0201219140C16570470000FC0802408F
:100A300030B5D0E913456560446D14B1D0E9164571
:100A4000656090F8444004F01F050124AC40056C3B
:100A50006C60046863608368102B036803D099603E
:100A60000068C26030BD9A600068C16030BD7047E8
:100A700090ED050A9FED151AD0ED060A20EE010A49
:100A80009FED131A20EE011A90ED020AF8EEC01A3B
:100A900041EE210AB8EEC01AC0ED060AF4EEC10A12
:100AA000F1EE10FA05DBB8EEC01A70EEC10AC0ED27
:100AB000060AF5EEC00AF1EE10FA05D2B8EEC00A49
:100AC00030EE800A80ED060A7047000017B75138F3
:100AD0008D7A883C72B6FEE710B5642001F0A0FA6A
:100AE00003F008FC05F0CEF97F21234800F052F80E
:100AF0000A2001F095FA032220491F4801F0A4F8CA
:100B00003C211F4802F0CCFC1E48002102685163C2
:100B1000026891630268D16300680164194802F0B9
:100B2000CBFE0421174802F0C7FE0821154802F049
:100B3000C3FE0C21134802F0BFFE124802F070FB06
:100B4000114802F06DFB01221146104801F05FFBD5
:100B50004FF0904401220221204601F058FB01226F
:100B60000421204601F053FB20460122BDE810403D
:100B7000114601F04CBB000038000020EC030020BF
:100B8000A0010020080100205401002000040048BA
:100B900004F066BCF8B500250446009590F85800AE
:100BA0000E4601280BD0012084F858002046FFF79C
:100BB000F1FB0200E06D04D040F010002AE00220BA
:100BC000F8BD20F4885040F00200E065206881689C
:100BD000134B194006F08043194341F000418160F6
:100BE000104B20680EE00099491C0091994209D3EE
:100BF000E06D20F0020040F01000E06584F85850ED
:100C00000120F8BD8168C90FEDD1E06D20F0020030
:100C100040F00100E06584F858501046F8BD00002F
:100C2000C0FFFF3F02DE0400704700002DE9F84FCF
:100C30004FF000080446CDF800800D4694F8582087
:100C4000DFF80094616947464046012A0AD0012630
:100C5000FD4A84F8586041B1296A012905D0A36E84
:100C6000EBB129E00220BDE8F88F6868092838D187
:100C7000A96A4FF4785041B12B6801F07C0100EA79
:100C800053400843E96A084302E0296800EA5140FA
:100C90002168CB6C13400343CB64606621E0C4E958
:100CA0001971A96A286A31B101F07C01401E08431C
:100CB000E96A084300E0401E2968C1F3846329798A
:100CC00001F01F018B400343A06E401EA066616EC1
:100CD00041EA0301616604D12068C36C13400B43F1
:100CE000C364206804F072FB58B995F8250098B1E8
:100CF0002068C16895F8262021F4401141EA42514C
:100D0000C160206804F072FB8246206804F05EFB3C
:100D10005AEA00010DD0FAE095F8260095F8241063
:100D2000400540EA01512068C26822F44012114394
:100D3000E6E7A86A30B1E86A20B195F825000128F5
:100D40005DD003E095F82500012804D02068C16833
:100D500021F0007103E02068C16841F00071C160BA
:100D600095F83000012851D02068016921F0020176
:100D70000161AA6829682068B2F1004F37D004F0F9
:100D800050FB2068416921F00041416120686A6997
:100D9000C168C1F3C10149008A402969042943D0CF
:100DA00000EB81002B68016EDFF8A0C203F0F8436E
:100DB00001EA0C011343194341F000410166226826
:100DC0002869A96902EB8000026E22F080720A4352
:100DD0000266297F22682869012922D0002102EBBE
:100DE0008000026E22F000720A4302668FE0002249
:100DF00004F017FB2068416941F00041C5E7E06D50
:100E000040F02000E0654FF00108A9E7D5E90D109A
:100E100001432068026922F4FF7242F0020211438A
:100E2000A6E74FF00071DAE7002104F0C5FA4003AD
:100E300020684FF0000171D004F0BEFA90FAA0F0E3
:100E4000B0FA80F1286842036DD090FAA0F0B0FAB1
:100E500080F0814204D100221146206804F0F8FAA3
:100E60000121206804F0A8FA400320684FF0010136
:100E70005CD004F0A1FA90FAA0F0B0FA80F12868F2
:100E8000420358D090FAA0F0B0FA80F0814204D129
:100E900000220121206804F0DBFA0221206804F01E
:100EA0008BFA400320684FF0020147D004F084FA27
:100EB00090FAA0F0B0FA80F12868420343D090FA8B
:100EC000A0F0B0FA80F0814204D100220221206813
:100ED00004F0BEFA0321206804F06EFA4003206893
:100EE0004FF0030132D004F067FA90FAA0F0B0FAA4
:100EF00080F1286842032ED090FAA0F0B0FA80F07A
:100F0000814204D100220321206804F0A1FA206864
:100F100004F064FA10B3B3E000E004E004F04CFA2B
:100F2000C0F384618EE7C0F3846092E704F044FA72
:100F3000C0F38461A3E7C0F38460A7E704F03CFA40
:100F4000C0F38461B8E7C0F38460BCE704F034FA0E
:100F5000C0F38461CDE7C0F38460D1E721682A7BC8
:100F6000286851F8B03FC0F3120C23EA0C0302F0DA
:100F7000180C374A22FA0CF2024013430B60E9685E
:100F800049457DD1286841031AD090FAA0F1B1FA01
:100F900081F1491C01F01F0109294FEA403130D885
:100FA000002910D090FAA0F1B1FA81F101F101010C
:100FB00001F01F0106FA01F608D1C0F3846109E0CF
:100FC000C0F38461E5E7C0F38461EFE790FAA0F134
:100FD000B1FA81F101F1010101F01F0146EA8161DD
:100FE00002D1C0F3846003E090FAA0F0B0FA80F080
:100FF00000F1010000F01F0000EB400041EA005149
:101000003AE000290DD090FAA0F1B1FA81F101F196
:10101000010101F01F0106FA01F605D1C0F3846158
:1010200006E0C0F38461F2E790FAA0F1B1FA81F131
:1010300001F1010101F01F0146EA81610BD1C0F30A
:1010400084600CE000007F400040100400F0FF03CB
:10105000FFFF070014E090FAA0F0B0FA80F000F172
:10106000010000F01F002B4A00EB400002EB005093
:1010700041EA000141F00071AA68206804F0D1F94A
:1010800025482968014240D0244A9068244B00F04A
:10109000E070994202D0234B99421BD1030219D42C
:1010A0002168B1F1A04F30D1916840F4000021F0E7
:1010B000E071014391601C481C490068B0FBF1F0ED
:1010C000801C00EB4000800000E0401E00900028E3
:1010D000FBD11AE0164D174BA94207D1C50105D423
:1010E0002168994211D040F0807009E0124DA94268
:1010F0000BD1410209D42168994206D040F4800006
:10110000916821F0E0710143916084F85870404685
:10111000A9E50000000020FE000008800003005048
:10112000000021C31000C0900C000020400D0300FF
:10113000000052C700010050000084CB10B54FF0F2
:10114000A040D0F880110F4C2167D0F88401A0672F
:10115000B4F89C00E0660C480068206404F094FE3B
:101160000A48B4F8F010026851630268B4F8F2104B
:1011700091630268B4F8F410D163006840F6650129
:10118000016410BD50030020240400400801002029
:10119000704700002DE9F04104464548806800F0A2
:1011A0001F05206804F012F908BB2068C168C06CF4
:1011B00001F0004110F4C07F00D191B194F85800C3
:1011C000012814D0012084F858002046FFF71AF9AE
:1011D00001004FF000070CD084F858700846BDE8B5
:1011E000F081E06D40F02000E0650120F7E702208B
:1011F000F5E7E06DC00504D5206E20F008002066FC
:1012000000E02766E06D42F20102904340F4805016
:10121000E065284B20684FF0A046984201D1324645
:1012200000E00246824200D01DB9E26D22F4801235
:10123000E2656022026084F858702068C2689202F9
:1012400003D5426842F480624260A06908282068A1
:10125000426807D022F0400242602068426842F0B3
:10126000200206E022F0200242602068426842F03C
:10127000400242602068984201D1324600E00246B6
:10128000824209D045B1062D06D0072D04D0E06D6D
:1012900040F48010E065A1E7C26812F0007F9DD1A4
:1012A0008268054B1A4042F00802826096E700000F
:1012B0000003005000010050C0FFFF7F70477047DF
:1012C0002DE9F84F00270446009790F85800DFF802
:1012D000D8930D46B846012810D0012684F85860EE
:1012E000206804F07FF858B1E06D40F02000E06520
:1012F000012784F858803846BDE8F88F0220FBE7C4
:10130000D5E900210C23206803EA91131844036BEC
:1013100001F01F014FF01F0C0CFA01FCC2F38462B4
:1013200023EA0C038A4013430363206804F05AF84D
:101330008246206804F046F85AEA00013CD1AA68C7
:1013400029682068B2F1004F37D004F05BF82068BC
:10135000416921F00041416120686A69C168C1F3B7
:10136000C10149008A402969042931D000EB81007C
:101370002B68016EDFF834C303F0F84301EA0C0177
:101380001343194341F00041016622682869A969A5
:1013900002EB8000026E22F080720A430266297F0F
:1013A00022682869012910D0002102EB8000026E1A
:1013B00022F000720A4302667DE0002204F022F867
:1013C0002068416941F00041C5E74FF00071ECE74A
:1013D000002103F0EBFF400320684FF0000171D0C3
:1013E00003F0E4FF90FAA0F0B0FA80F1286842031D
:1013F0006DD090FAA0F0B0FA80F0814204D10022C2
:101400001146206804F01CF80121206803F0CEFF8B
:10141000400320684FF001015CD003F0C7FF90FA51
:10142000A0F0B0FA80F12868420358D090FAA0F0FA
:10143000B0FA80F0814204D100220121206803F03B
:10144000FFFF0221206803F0B1FF400320684FF046
:10145000020147D003F0AAFF90FAA0F0B0FA80F1A1
:101460002868420343D090FAA0F0B0FA80F081429D
:1014700004D100220221206803F0E2FF032120684A
:1014800003F094FF400320684FF0030132D003F0D3
:101490008DFF90FAA0F0B0FA80F1286842032ED0B8
:1014A00090FAA0F0B0FA80F0814204D1002203212A
:1014B000206803F0C5FF206803F08CFF10B3AAE09A
:1014C00000E004E003F072FFC0F384618EE7C0F334
:1014D000846092E703F06AFFC0F38461A3E7C0F37E
:1014E0008460A7E703F062FFC0F38461B8E7C0F34C
:1014F0008460BCE703F05AFFC0F38461CDE7C0F31A
:101500008460D1E721682A7B286851F8B03FC0F396
:10151000120C23EA0C0302F0180C654A22FA0CF2B2
:10152000024013430B60E968494574D128684103C0
:101530001AD090FAA0F1B1FA81F1491C01F01F0113
:1015400009294FEA403130D8002910D090FAA0F193
:10155000B1FA81F101F1010101F01F0106FA01F672
:1015600008D1C0F3846109E0C0F38461E5E7C0F30A
:101570008461EFE790FAA0F1B1FA81F101F1010184
:1015800001F01F0146EA816102D1C0F3846003E0EB
:1015900090FAA0F0B0FA80F000F1010000F01F0016
:1015A00000EB400041EA005131E000290DD090FAF3
:1015B000A0F1B1FA81F101F1010101F01F0106FA78
:1015C00001F605D1C0F3846106E0C0F38461F2E75F
:1015D00090FAA0F1B1FA81F101F1010101F01F01CE
:1015E00046EA816102D1C0F3846003E090FAA0F082
:1015F000B0FA80F000F1010000F01F002D4A00EB6E
:10160000400002EB005041EA000141F00071AA687D
:10161000206803F0F7FE2848296801423FF469AECC
:10162000264A9068264B00F0E070994202D0254B84
:1016300099421CD103021AD42168B1F1A04F7FF462
:1016400058AE916840F4000021F0E07101439160D0
:101650001D481E490068B0FBF1F0401C00EB400043
:10166000800000E0401E00900028FBD141E6184DAC
:10167000184BA94207D1C50105D421689942F5D07C
:1016800040F0807009E0144DA942EFD14102EDD441
:1016900021689942EAD040F48000916821F0E0711D
:1016A0000143916025E6000000007F4000F0FF0349
:1016B000FFFF0700000020FE00000880000300502C
:1016C000000021C31000C0900C000020400D03005A
:1016D000000052C700010050000084CB70477047E3
:1016E000704700002DE9F05F044600680668456811
:1016F000DFF854B2DBF8080000F01F07B0070ED582
:10170000A8070CD5E06DC00603D4E06D40F400607E
:10171000E0652046FFF788FA216802200860DFF8BC
:101720002CA270074FF0A04801D5680703D43007FA
:1017300037D5280735D5E06DC00603D4E06D40F4F9
:101740000070E065206803F055FE20B32068504526
:1017500001D1414600E00146814208D03FB1052F4A
:1017600005D0092F03D0504503D1414602E0C1689E
:1017700001E00146C96889040DD4016809070AD54A
:1017800003F030FE58B3E06D40F01000E065206ECD
:1017900040F0010020662046FFF7A0FF21680C20E2
:1017A0000860B00601D5A80603D4700658D56806AF
:1017B00056D5E06DC00603D4E06D40F40050E065FE
:1017C0002068C16C11F4C07F1AD00021894603F053
:1017D00011FE02462068504514D1414613E02068AE
:1017E000416821F00C014160E06D20F48070E065FB
:1017F000E06DC004CFD4E06D40F00100E065CAE7C1
:101800000121E3E70146814208D03FB1062F05D010
:10181000072F03D0504503D1414602E0C16801E0E3
:101820000146C968B9F1000F14D08B0102D58AB105
:101830008A040FD4026852060CD589020AD403F038
:10184000C1FDE8B3E06D40F01000E065206E40F0AF
:10185000010020662046FFF771FC216860200860C7
:1018600030060BD5280609D5E06D40F48030E065E0
:10187000204600F065F9216880200860F0050CD54D
:10188000E8050AD5E06D40F40030E0652046FFF73A
:1018900015FD21684FF480700860B0050CD5A805CF
:1018A0000AD5E06D40F48020E0652046FFF707FD93
:1018B00021684FF400700860F0062ED5E80600E0BD
:1018C00008E02AD5E06BD0B1AFB1DBF8080000F436
:1018D000604013E02068416821F060014160E06DE4
:1018E00020F48050E065E06DC005B3D4E06D40F0B9
:1018F0000100E065AEE72068C068C00750B1E06D48
:1019000040F48060E065206E40F0020020662046D2
:10191000FFF7E6FE216810200860700512D5680503
:1019200010D5E06D40F48040E065206E40F0080086
:10193000206621684FF4806008602046BDE8F05FB3
:10194000FFF726BCBDE8F09F0003005000010050E7
:10195000F8B54FF0000504002E46009502D0E06D6A
:1019600010B107E00120F8BD204600F0EBF8266634
:1019700084F8586020688168C1F3407119B18168AA
:10198000674A1140816020688168C1F3007189B99C
:101990008168644A114041F0805181606248634926
:1019A0000068B0FBF1F04000801C00E0401E009099
:1019B0000028FBD120688168C1F3007141B9E16D55
:1019C00041F01001E165216E41F001012166012520
:1019D00003F008FDE16DC90600D430B1E06D40F0C0
:1019E0001000E06501252846F8BDE06D20F4807008
:1019F00040F00200E065206803F0ECFC88B94FF08D
:101A0000A04080684A49C0F300008968C1F3000122
:101A1000084306D1474960688A6822F47C12024371
:101A20008A60E168E06B627F0843A16841EA423165
:101A3000084394F8241040EA0140012904D1218D83
:101A40003D4A02EB41410843E16A29B101F4787152
:101A5000226B014342EA01002168CA68374B1A40F1
:101A60000243CA6020680169626B21F04061114342
:101A70000161206803F0A6FC70BB207F94F8381049
:101A8000800340EA41012068C26844F202039A439D
:101A90000A43C26020690028206801690AD041F425
:101AA00080310161206850F8C01F22696FF30D0179
:101AB000114307E021F480310161206850F8C01F14
:101AC0006FF30D01016094F8400001280CD02068EC
:101AD000016921F001010161606901282068016B41
:101AE00021F00F0110D012E0D4E911100143D4E924
:101AF0001302104301432068026940F2FC739A43C9
:101B0000114341F00101E6E7226A521E11430163CD
:101B1000E06D20F0020040F00100E06563E70000A6
:101B2000C0FFFF5FC0FFFF7F0C000020400D0300DF
:101B300000010050000300500000FEFF0740F0FFCE
:101B400070470000F0B597B0064614216846FEF7CE
:101B500099FB442105A8FEF795FB3549306888427A
:101B600063D1C00105908003149005A800F052FCD9
:101B700008B1FEF7AFFF2F49C86C40F40050C864AD
:101B8000C86C00F400501690C86C40F00100C864A6
:101B9000C86C00F001001690C86C40F00400C864E6
:101BA000C86C00F004001690C86C40F00200C864D5
:101BB000C86C032400F002001690502000258DE828
:101BC000310069464FF0904000F03CFA2027009722
:101BD00069461948CDE9014500F034FA48F204009D
:101BE0008DE831006946154800F02CFA154C144870
:101BF00020602420C4E901058020C4E9035040008E
:101C0000606180002562C4E90607204600F062F9A1
:101C100008B1FEF75FFF7465002201211220A66261
:101C200000F060FB122000F04FFB17B0F0BD000089
:101C30000001005000100240000800480004004865
:101C400008000240800200202DE9F041044634489B
:101C500017468846806800F01F05206803F0C2FB25
:101C600000285AD194F85800012856D0012084F851
:101C70005800002625B1052D02D0092D00D003E023
:101C80002046FEF7BFFB18B184F85860BDE8F0812C
:101C9000E06D40F60161884340F48070E0652149C1
:101CA0002068884202D14FF0A04100E00146814205
:101CB00000D01DB9E06D20F48010E065E06DC00437
:101CC00004D5206E20F00600206600E02666616DD7
:101CD0001548C862616D15480863616D1448486312
:101CE00021681C20086084F858602068416841F031
:101CF000100141602068C16841F00101C1602168A4
:101D00003B4642464031606D00F044F921688A68E4
:101D1000084B1A40121D8A60B8E70220B6E700009F
:101D20000003005000010050090300088B03000865
:101D300071030008C0FFFF7F10B590F82520002137
:101D40000123022A03D00421C163012122E0026899
:101D5000146824F00E041460826C146824F48074F7
:101D600014600268146824F00104146090F84420A0
:101D7000046C02F01F0203FA02F26260D0E913243D
:101D80005460426D32B1146824F480741460D0E958
:101D90001624546080F82530002280F8242008465C
:101DA00010BD70B590F825100024012223460229A9
:101DB00007D00421C16380F8252080F82430012455
:101DC00029E001680D6825F00E050D6001680D68B9
:101DD00025F001050D60816C0D6825F480750D609E
:101DE00090F84410154601F01F018A40016C4A60CA
:101DF000D0E913124A60416D31B10A6822F4807251
:101E00000A60D0E916124A6080F8255080F8243024
:101E1000816B01B18847204670BDF0B4016C0B683E
:101E200001680A6890F84440042504F01F0405FA8C
:101E300004F61E4211D056070FD50A68920603D445
:101E40000A6822F004020A6090F8441001F01F01B1
:101E50008D40016C4D60016B1DE0022606FA04F70F
:101E60001F424FF0000C4FF0010518D0970716D510
:101E70000A68920605D40A6822F00A020A6080F80D
:101E8000255090F8441001F01F018E40016C4E6007
:101E900080F824C0C16A00291AD0F0BC084708267F
:101EA000A6401E4214D0120712D50A6822F00E0274
:101EB0000A6090F84410026C01F01F0105FA01F16C
:101EC0005160C56380F8255080F824C0416BE2E77B
:101ED000F0BC704770B504000CD02B4A2068142168
:101EE000904209D2294A0244B2FBF1F189006164AF
:101EF00027490AE0012070BD234A52420244B2FB46
:101F0000F1F189006164204908392164022184F8D3
:101F10002510016847F6F0729143D4E902231A4371
:101F2000D4E904352B431A43A3691A43E3691A43DE
:101F3000236A1A430A4302602046FEF747FDA06861
:101F40000025B0F5804F00D16560A16C2079086054
:101F5000D4E9130141606068401E032808D8204678
:101F6000FEF754FD606D0560D4E91601416002E0A2
:101F70006565A565E565E563012084F8250084F8BD
:101F80002450002070BD000008040240F8FFFDBF8F
:101F90000000024070B5044690F824000025012896
:101FA0000CD0012084F8240094F825600020012E34
:101FB00006D084F824000225284670BD022070BD9A
:101FC000022684F82560E0632068066826F0010692
:101FD00006602046FEF72CFD206B00282068016873
:101FE00002D041F00E0106E021F0040101602068FA
:101FF000016841F00A010160A06C0168C90303D5C2
:10200000016841F480710160606D18B1016841F4AC
:10201000807101602068016841F001010160CBE737
:1020200070B5044600F0F8F80546601C02D004487C
:102030004068044400F0F0F8401BA042FAD370BDA1
:10204000000000202DE9F84FDFF888910022A9F167
:10205000040B03274FF00F0C09F1040AABF1040E37
:10206000B1E0012595402B4073D00C7904F00304B6
:10207000012C01D0022C15D18668540007FA04F80F
:1020800026EA0806D1F80C8008FA04F848EA06089F
:10209000C0F808804468AC430D79C5F3001595403D
:1020A000254345600C79E443A40708D0C568540073
:1020B00007FA04F6B5438E68A6402E43C6600C7935
:1020C00004F00304022C11D1D40800EB8406356A15
:1020D0005407E40E0CFA04F825EA0805D1F810803C
:1020E00008FA04F848EA0508C6F820800568540094
:1020F00007FA04F6B5430E7906F00306A6402E4310
:1021000006604C6814F4403F5CD0334C256E45F0BB
:1021100001052566246E22F0030504F001040094F5
:102120002E4C05EB0408D8F808509407260F0CFA3B
:1021300006F4A543B0F1904F04D0294CA04203D13E
:10214000012417E0002415E0264CA04202D102240D
:1021500010E037E0244CA04201D103240AE0234CD4
:10216000A04201D1042405E0214CA04201D1052464
:1021700000E00624B4402C43C8F80840D9F80040D9
:102180004D464E689C43F60200D51C432C60DAF89D
:10219000004055464E689C43B60200D51C432C6057
:1021A000DBF800405D464E689C43B60300D51C43F7
:1021B0002C60DEF8004075464E689C43F60300D55F
:1021C0001C432C60521C0B6833FA02F47FF449AFB5
:1021D000BDE8F88F080401400010024000000140F3
:1021E0000004004800080048000C004800100048A7
:1021F000001400480069084000D00120704742697F
:1022000021EA02030A4043EA0241816170470AB1B0
:1022100081617047816270470148806870470000A3
:1022200000000020024881684268114481607047C4
:102230000000002010B50024032000F073F80F20E8
:1022400000F008F808B1012401E000F025F820466C
:1022500010BD000070B50E4E05460024706898B1A0
:102260004FF47A71B1FBF0F00A490968B1FBF0F064
:1022700000F0BDFE40B9102D06D200222946501EA6
:1022800000F030F8356000E00124204670BD000009
:10229000000000200C0000200A4882B0016E41F0CE
:1022A00001010166016E01F001010091816D41F0B3
:1022B00080518165806D00F08050009002B000F088
:1022C000A1B8000000100240002809DB00F01F0246
:1022D000012191404009800000F1E020C0F8001188
:1022E00070470000F0B40E4B1B68C3F30223C3F128
:1022F0000704042C00D904241D1D072D01D200233E
:1023000000E0DB1E012606FA04F56D1E0D409D401F
:102310009E40761E164045EA0601F0BC05F038BC2A
:102320000CED00E0064A00F0070110684FF6FF03CD
:10233000184040EA0120034908431060704700003C
:102340000CED00E00000FA052B492C4B0A68322105
:102350004A432B4940B1B0F5007F086829D020F4EA
:10236000C06040F480602CE00868C0F3412002287F
:1023700004D051F8800F20F4807022E0D1F8800062
:1023800020F48070C1F88000086820F4C06040F438
:1023900000700860B2FBF3F0401C00E0401E4A6988
:1023A000520501D50028F9D1486940050AD5032016
:1023B0007047C0F34120022806D051F8800F40F446
:1023C0008070086000207047D1F8800040F4807071
:1023D000C1F88000086820F4C06040F40070086014
:1023E000B2FBF3F0401C00E0401E4A695205DBD509
:1023F0000028F9D1D8E700000C00002040420F006F
:10240000007000400248816841F48041816070475B
:10241000007000402DE9F84F044600260068A24DE8
:10242000374600035CD5A86D4FF00009C00009D401
:10243000A86D40F08050A865A86D4FF0010900F02C
:1024400080500090DFF864A2DAF8001041F4807147
:10245000CAF80010FFF7E0FE804607E0FFF7DCFE59
:10246000A0EB0800022801D9032631E0DAF80000C9
:10247000C005F3D566BBD5F8900010F4407014D0B9
:10248000216C814211D0D5F89000D5F8901020F43D
:10249000407041F48031C5F89010D5F8901021F4C7
:1024A0008031C5F89010C5F89000C0074ED0FFF7F6
:1024B000B3FE804641F2883A05E0FFF7ADFEA0EB9F
:1024C00008015145D0D8D5F890008007F5D5EEB376
:1024D0003746B9F1000F03D0A86D20F08050A865F1
:1024E0002078C00707D0D5F88800616820F0030085
:1024F0000843C5F888002078800707D5D5F88800FC
:10250000A16820F00C000843C5F888002078400737
:1025100007D5D5F88800E16820F030000843C5F8F9
:1025200088002078000707D5D5F88800216920F0B9
:10253000C0000843C5F888002078800609D5D5F882
:102540008800616920F44060084300E03DE0C5F880
:1025500088002078400607D5D5F88800A16920F4C6
:1025600040500843C5F888002078000607D5D5F804
:102570008800E16920F440400843C5F888002088BD
:10258000C00507D5D5F88800216A20F440300843FB
:10259000C5F888002088800507D5D5F88800616ACD
:1025A00020F440200843C5F888002088400519D54C
:1025B000D5F88800A16A20F440100843C5F88800C7
:1025C000A06AB0F5801F09D00CE0D5F89000216C0E
:1025D00020F440700843C5F890007AE7E86840F4BA
:1025E0008010E860208800050FD5D5F88800E16AE2
:1025F00020F440000843C5F88800E06AB0F5800F79
:1026000003D1E86840F48010E8602088C0040FD54A
:10261000D5F88800216B20F040700843C5F8880089
:10262000206BB0F1807F03D1E86840F48010E8604F
:10263000208881044FF000600ED5D5F88810626BB9
:1026400021F040611143C5F88810616B814203D1CC
:10265000E96841F48011E960218849040ED5D5F874
:102660008810A26B21F040611143C5F88810A16B5E
:10267000814203D1E86840F48010E86020880004BB
:102680000FD5D5F88800E16B20F040500843C5F81D
:102690008800E06BB0F1805F03D1E86840F48030DF
:1026A000E8603846BDE8F88F001002400070004036
:1026B0002DE9F0470D4604004FF0000725D0DFF864
:1026C000A091D9F8000000F00F00A8420CD2D9F870
:1026D000001021F00F012943C9F80010D9F80000BB
:1026E00000F00F00A84210D121685E4EC80741F2E9
:1026F000883A52D06068DFF87081032808D0022839
:10270000306826D04005002825DB0120BDE8F08791
:1027100030688001F9D5F068F068544BC0F30310BD
:10272000401CB3FBF0F0F268C2F306225043F2689B
:10273000C2F34162521C5200B0FBF2F0404515D981
:10274000B06810F0F00F0AD088070FD5A06830B13C
:102750000CE08003D7E700F0B5F8404506D9B06833
:1027600020F0F00040F08000B0608027B068616821
:1027700020F003000843B060FFF74EFD804605E0FF
:10278000FFF74AFDA0EB080151453BD8B0686168EE
:1027900000F00C00B0EB810FF2D12068810714D556
:1027A000400703D5B06840F4E060B06020780007CF
:1027B00005D5B06820F4605040F4E060B060B068C7
:1027C000A16820F0F000084304E0802F03D1B06836
:1027D00020F0F000B060D9F80010484601F00F0179
:1027E000A94217D90168C84621F00F0129430160A9
:1027F000FFF712FD0746D14606E0FFF70DFDC11BAE
:10280000494501D9032081E7D8F8000000F00F0006
:10281000A842F2D12078400705D5B068E16820F4DD
:10282000E0600843B0602078000706D5B0682169F1
:1028300020F4605040EAC100B06000F043F8B16895
:102840000B4AC1F30311515C01F01F01C840094953
:10285000086009480068BDE8F047FFF7FBBC0000CE
:10286000002002400010024000B4C4040024F40020
:10287000807C00080C00002000000020054806496C
:1028800000688968054AC1F30221515C01F01F010B
:10289000C84070470C00002000100240907C0008E7
:1028A0000548064900688968054AC1F3C221515CA0
:1028B00001F01F01C84070470C00002000100240CA
:1028C000907C0008134A9068C0F3810112480129E6
:1028D0000AD09168C1F38101022905D09168C1F342
:1028E0008101032901D000207047D16801F0030362
:1028F000D168C1F30311491CB0FBF1F0D168C1F3F9
:1029000006214843D168C1F34161491C4900B0FB2D
:10291000F1F07047001002400024F4002DE9F84364
:10292000040078D02078F54DC00745D0A868E96844
:1029300000F00C0001F003010C2802D0082817D089
:1029400001E0032914D06068B0F5803F17D0B0F5DE
:10295000A02F286817D020F480302860286820F441
:10296000802028606068D8B1FFF756FC064613E067
:102970002868800320D560680028D2D01CE0286831
:1029800040F48030EDE740F480202860F7E7FFF75F
:1029900043FC801B64286ED828688003F7D50BE0C1
:1029A000FFF73AFC064604E0FFF736FC801B64287C
:1029B000F1D828688003F7D4207880074BD5A86821
:1029C000E96800F00C0001F003010C2802D0042893
:1029D0000DD001E002290AD0E068002828682BD039
:1029E00040F480702860FFF717FC064619E028685D
:1029F000400502D5E068002893D06868217C20F06B
:102A0000FE4040EA01606860BD480068FFF722FCB4
:102A1000002800D11FE06DE1FFF7FEFB801B0228BC
:102A2000B9D828684005F7D56868217C20F0FE40B9
:102A300040EA016068600EE020F480702860FFF7D3
:102A4000EBFB064604E0FFF7E7FB801B0228A2D859
:102A500028684005F7D42078000728D56069002849
:102A6000D5F8940012D040F00100C5F89400FFF7AB
:102A7000D3FB064605E08FE0FFF7CEFB801B022864
:102A800089D8D5F894008007F6D510E020F0010031
:102A9000C5F89400FFF7C0FB064604E0FFF7BCFB57
:102AA000801B022878D8D5F894008007F6D42078C7
:102AB000400761D5A86D0027C00008D4A86D40F07C
:102AC0008050A865A86D012700F0805000908D48C7
:102AD0000168C90511D40168804641F48071016024
:102AE000FFF79AFB064604E0FFF796FB801B0228DF
:102AF00052D8D8F80000C005F6D5A068012815D036
:102B00000528D5F8900016D020F00100C5F89000F7
:102B1000D5F8900020F00400C5F89000A06841F2BC
:102B20008838B8B1FFF778FB06460EE0D5F890007C
:102B300040F00100F0E740F00400C5F89000F5E730
:102B4000FFF76AFB811B414526D8D5F89000800726
:102B5000F6D50CE0FFF760FB064604E0FFF75CFBF0
:102B6000811B414518D8D5F890008007F6D41FB1D5
:102B7000A86D20F08050A8652078800628D5A0692F
:102B80000028D5F8980012D040F00100C5F8980050
:102B9000FFF742FB064605E072E0FFF73DFB801BB6
:102BA00002286DD8D5F898008007F6D510E020F0FF
:102BB0000100C5F89800FFF72FFB064604E0FFF779
:102BC0002BFB801B02285BD8D5F898008007F6D431
:102BD000E069E8B3A968C1F3810103295BD0022849
:102BE000286820F08070286003D0FFF715FB0446AA
:102BF00049E0FFF711FB064604E0FFF70DFB801BE1
:102C000002283DD828688001F7D4F4E908016FF064
:102C10000F0202EB01110843218A5204490802EB1A
:102C20004151A26841EA02210843217D4FF07E42D2
:102C3000490802EB41610843217B40EAC160E96831
:102C4000314A11400843E860286840F0807000E095
:102C500052E02860E86840F08070E860FFF7DCFA36
:102C6000044604E0FFF7D8FA001B022808D82868B9
:102C70008001F7D540E0FFF7CFFA001B022802D908
:102C80000320BDE8F88328688001F4D4E8681F4970
:102C90000840E86030E00128F3D0E868226A00F0DC
:102CA0000301914226D1616A00F0F0020901103956
:102CB00091421FD1A26A00F4FE41B1EB022F19D15B
:102CC00094F82C2000F07841B1EBC26F12D1218E24
:102CD00000F4C00249084905A1F50011914209D14B
:102CE00094F8341000F0C06049084906A1F1007161
:102CF000814201D00120C4E70020C2E70010024059
:102D000000000020007000400C809F01FCFFEEFEE0
:102D100070B5040009D0606A002540B12561656185
:102D2000A56294F85D0040B10CE0012070BD6068C0
:102D3000B0F5827FF4D0E561F2E784F85C5020467C
:102D400000F05CF8022084F85D002068016821F042
:102D500040010160E0684FF4E062904201D9002137
:102D600001E04FF48051B0F5706F02D0904200D076
:102D7000A562A088228900F4827002F40442104304
:102D8000227C02F002021043227D02F00102104375
:102D9000228B02F400721043227F02F038021043AB
:102DA00094F8202002F080021043228D02F4005299
:102DB000104322681060A069042202EA104094F8CF
:102DC000242001F4805102F01002104394F83420C2
:102DD00002F008021043A28902F470621043084313
:102DE000216848602068C16921F40061C1612566DD
:102DF000012084F85D00002070BD000010B586B091
:102E0000044614216846FDF73DFA134920688842BC
:102E10001FD11248816D41F400418165816D01F43B
:102E200000410591C16C41F00401C164C06C694668
:102E300000F0040005904FF4A05000900220019093
:102E40000020029003200390062004900448FFF71E
:102E5000F9F806B010BD0000003C00400010024030
:102E6000000800482DE9F84F1D4617468A460446DB
:102E7000FFF7D2F9064694F85D00012826D1BAF191
:102E8000000F6FD0002F6DD094F85C0001281DD08A
:102E90004FF0010984F85C90032084F85D004FF046
:102EA0000008C4F86080C4F838A0A787E787C4F892
:102EB0004080A4F84480A4F84680C4F85080C4F848
:102EC0004C80A068B0F5004F03D00CE00220BDE8B4
:102ED000F88F2068016821F04001016020680168D6
:102EE00041F48041016020680168490603D401680B
:102EF00041F040010160E068B0F5E06F606822D900
:102F000008B1012F1BD1A06B21680088C86006E0C2
:102F100020688168890709D5A16B0988C160A06B09
:102F2000801CA063E08F401EE08708E0FFF774F983
:102F3000801BA84202D3681C01D045E0A5B3E08FF6
:102F40000028E5D135E008B1012F2FD1E08F01280D
:102F5000A06B03D921680088C86010E02168007860
:102F6000087314E041E0E08720E020688168890769
:102F700013D5E18F0129A16B07D90988C160A06B26
:102F8000801CA063E08F801EEDE709780173A06BC1
:102F9000401CA063E08F401EE5E7FFF73DF9801B72
:102FA000A84202D3681C01D00EE06DB1E08F00286A
:102FB000DBD132462946204603F016F908B120201D
:102FC0002066A06830B109E084F85D9084F85C80E8
:102FD00003207CE72068C1688068009084F85D90D9
:102FE00084F85C80206E0028F3D001206FE710B5D4
:102FF000401EB0F1807F01D3012010BD4FF0E024CE
:1030000060610F21601704F0C3FD0020A06107205C
:103010002061002010BD70477047704730B590F8B0
:103020003C20012A42D0012280F83C20CA688B68EB
:1030300022F440721A434B6822F480621A430B68F0
:1030400022F400621A430B6922F480521A434B693E
:1030500022F400521A430B6B22F480421A430B8B6A
:1030600022F4702242EA0342CB6922F080521A43D2
:103070000F4D03680024AB4202D00E4DAB4210D17D
:103080000D8D22F4700242EA05520D6A22F0807220
:103090002A434D6A22F000722A43C96A22F0005284
:1030A0000A435A6480F83C40002030BD022030BD05
:1030B000002C014000340140704770477047000009
:1030C000F0B590F83C20012A3AD0012580F83C5018
:1030D000022280F83D2003685A689C68194E1A4FF6
:1030E000B34201D0BB4204D122F4700C4A6842EAD8
:1030F0000C02DFF858C002EA0C02D1F800C04CEA1A
:10310000020CC3F804C00268B2420DD0B2F1804F85
:103110000AD00F4B9A4207D00E4B9A4204D0BA42C3
:1031200002D00D4B9A4204D1896824F080031943E0
:10313000916080F83D50002180F83C100846F0BDB9
:103140000220F0BD002C0140003401408FFFFFFD44
:10315000000400400008004000400140704710B5E6
:10316000040003D094F83D0010B107E0012010BD29
:10317000002084F83C00204600F022F8022084F869
:103180003D00211D206803F03DFF012084F8480028
:1031900084F83E0084F83F0084F8400084F8410041
:1031A00084F8420084F8430084F8440084F8450021
:1031B00084F8460084F8470084F83D00002010BDE4
:1031C00008B50068144A154990420ED1086E40F4C3
:1031D00000600866086E002200F40060009011464E
:1031E0001920FFF77FF8192010E0B0F1804F11D1BE
:1031F000886D40F001008865886D002200F00100B4
:10320000009002211C20FFF76DF81C20BDE808404B
:10321000FFF75AB808BD0000002C01400010024022
:1032200090F83D10012901D001207047022180F85B
:103230003D100168CA6842F00102CA600068104986
:1032400088420ED0B0F1804F0BD00E49884208D092
:103250000D49884205D00D49884202D00C49884268
:1032600007D181680B4A1140062906D0B1F5803F8D
:1032700003D0016841F001010160002070470000A7
:10328000002C0140000400400008004000340140D0
:10329000004001400700010070B5044690F83C0072
:1032A0000025012814D0012684F83C60022084F80F
:1032B0003D0020688268364B1A4022F47F428260CB
:1032C000086870282ED010DC10F00F0F03D021E01A
:1032D0004FF0020070BD4FEA2012072A1AD2DFE831
:1032E00002F0525252524A3840002A4BC21A9842B7
:1032F00049D009DCB0F5805F0DD0B0F5005F1CD07F
:10330000B0F1101F06D13EE0102A3CD0202A3AD05E
:10331000502A38D0012584F83D60002084F83C0014
:10332000284670BDCB68D1E90121206803F0D5FEA5
:103330002068816841F0770109E0CB68D1E901217B
:10334000206803F0CAFE2068816841F480418160F2
:10335000E1E7CA684968206804F06AF850212068EB
:1033600006E0CA684968206804F073F860212068A4
:1033700003F0BEFECFE7CA684968206804F058F839
:1033800040212068F4E7226801461046F0E700007B
:1033900088FFCEFF200010002DE9F0410D4604000B
:1033A00003D094F83D0018B108E00120BDE8F08199
:1033B000002084F83C00204600F042F8022084F807
:1033C0003D00206881681D4A11408160211D2068F0
:1033D00003F018FE206881688269066A2B68AF696D
:1033E0000B4340F203318A4342EA0722A968EF699E
:1033F00011434FF6FC429143EA6841EA07210A4330
:1034000029692F6A090141EA073111436A686D6928
:1034100026F0AA0646EA05152A43836020688161E2
:1034200054F8480B0262012004F81F096075A0756A
:10343000E076207720750020B8E70000F8BFFEFF97
:1034400010B586B0044614216846FCF71BFF1149ED
:10345000206888421CD11048816D41F002018165CD
:10346000816D01F002010591C16C41F00201C1645E
:10347000C06C032100F00200059030200090022073
:10348000CDE902010190049069460448FEF7DAFD97
:1034900006B010BD000400400010024000040048C7
:1034A00070B590F83E50044690F83F3090F84420B4
:1034B00090F84500022621B104290BD0012D16D128
:1034C0000FE0012D13D1012A11D184F83E6084F858
:1034D000446016E0012B0AD1012808D184F83F602E
:1034E0000DE0012B03D1012A01D1012801D00120D7
:1034F00070BD84F83E6084F83F6084F8446084F8CE
:10350000456091B1042904D001220021206803F014
:10351000D7FD01220421206803F0D2FD2068016854
:1035200041F001010160002070BD012200212068EE
:10353000F2E770472DE9F04104460068C668056966
:103540004FF00007A90713D5B10711D5F91E016186
:1035500001202077206880698007204602D0FFF78D
:10356000E8FF04E000F0E2F8204600F0A4F9277735
:10357000680716D5700714D521686FF0040008613C
:10358000022020772068806910F4407F204602D016
:10359000FFF7CFFF04E000F0C9F8204600F08BF9F8
:1035A0002777280715D5300713D521686FF0080055
:1035B0000861042020772068C0698007204602D077
:1035C000FFF7B7FF04E000F0B1F8204600F073F910
:1035D0002777E80616D5F00614D521686FF010009D
:1035E0000861082020772068C06910F4407F2046D9
:1035F00002D0FFF79EFF04E000F098F8204600F0AC
:103600005AF92777E80708D0F00706D021686FF04D
:1036100001000861204600F0D3F9280601D4A8046F
:1036200008D5300606D521686FF40250086120469F
:10363000FFF7F2FCE80508D5300606D521686FF4DF
:10364000807008612046FFF7E6FC680608D5700622
:1036500006D521686FF040000861204600F0E6F9C9
:10366000A80608D5B00606D521686FF020000861CD
:103670002046FFF7D2FCE80208D5F00206D5216803
:103680006FF4801008612046FFF717FDA80208D5E7
:10369000B00206D521686FF4001008612046FFF7DC
:1036A0000BFD680208D5700206D521686FF4800012
:1036B00008612046FFF702FD28020AD5300208D52E
:1036C00021686FF4000008612046BDE8F041FFF773
:1036D00045BDBDE8F081000010B586B00446142158
:1036E0006846FCF7CFFD0E492068884215D10D4889
:1036F000C16C41F00401C164C06C002100F0040001
:1037000005900F2000900220CDE901010321CDE9B1
:10371000031069460448FEF795FC06B010BD000092
:10372000002C01400010024000080048704770B5AE
:10373000044690F83C0000260D4601280BD00120DD
:1037400084F83C000C2A4AD007DC82B1042A20D03D
:10375000082A06D131E0022070BD102A53D0142A65
:1037600063D00126002084F83C00304670BD2068FC
:1037700003F0C8FC2068816941F00801816120687C
:10378000816921F004018161206881692A691143FE
:1037900011E0206803F004FD2068816941F40061B4
:1037A00081612068816921F480618161206881697B
:1037B0002A6941EA02218161D4E7206803F038FDDB
:1037C0002068C16941F00801C1612068C16921F028
:1037D0000401C1612068C1692A69114311E02068B0
:1037E00003F06EFD2068C16941F40061C161206889
:1037F000C16921F48061C1612068C1692A6941EA17
:103800000221C161AEE7206803F0A2FD2068016DCE
:1038100041F0080101652068016D21F00401016596
:103820002068016D2A69114311E0206803F0C8FD8A
:103830002068016D41F4006101652068016D21F48B
:10384000806101652068016D2A6941EA02210165F4
:1038500088E710B5040003D094F83D0010B107E0EC
:10386000012010BD002084F83C00204600F022F822
:10387000022084F83D00211D206803F0C3FB0120D5
:1038800084F8480084F83E0084F83F0084F8400043
:1038900084F8410084F8420084F8430084F844002E
:1038A00084F8450084F8460084F8470084F83D0019
:1038B000002010BD7047704730B5044669B1042937
:1038C0000ED008290FD00C2910D0102911D094F84F
:1038D0004300012810D0012030BD94F83E00F8E7E5
:1038E00094F83F00F5E794F84000F2E794F84100BF
:1038F000EFE794F84200ECE70220E9B3042942D054
:10390000082943D00C2944D0102945D084F843001D
:103910000122206803F0D4FB21492068214A224B70
:10392000884209D0904207D0984205D01F4DA84246
:1039300002D01F4DA84203D1456C45F400454564B3
:10394000206888420CD0B0F1804F09D019498842D4
:1039500006D01949884203D0904201D0984207D13D
:103960008168164A1140062908D0B1F5803F05D07C
:10397000016841F0010100E002E00160002030BD7B
:1039800084F83E00C4E784F83F00C1E784F84000B3
:10399000BEE784F84100BBE784F84200B8E70000C6
:1039A000002C01400034014000400140004401402F
:1039B00000480140000400400008004007000100EA
:1039C00010B51349044600680968884202D11148BD
:1039D000FDF7E0FB104920680968884217D10F48BD
:1039E0000188491C01800E490888401C08800D4947
:1039F0000888401C08800C490888401C088001F099
:103A0000BBFD00F039FCBDE8104004F07BB810BDF0
:103A1000080100203800002054010020120000207E
:103A20001A000020280000202C000020704790F889
:103A30008410012918D0012180F884102421C0F8B5
:103A4000881001680A680B6823F001030B6022F0FC
:103A5000005100224266036819602021C0F88810D6
:103A600080F88420104670470220704770477047E6
:103A700070B5044690F8840001281DD0012084F818
:103A800084002420C4F8880020680568026822F0B9
:103A9000010202602068826822F060620A4382604C
:103AA000204603F031FD206805602020C4F888001E
:103AB000002084F8840070BD022070BD70B50446FB
:103AC00090F8840001281DD0012084F8840024206F
:103AD000C4F8880020680568026822F001020260CC
:103AE0002068826822F060420A438260204603F028
:103AF0000BFD206805602020C4F88800002084F8B1
:103B0000840070BD022070BD704770477047000090
:103B10002DE9F04103680446D86919689A6840F6AF
:103B20000F0528424FF000054FF002060AD1870624
:103B30007ED501F0200702F0805C57EA0C0777D0B1
:103B4000616F42E1B64FDFF8DCC2174001EA0C0CAE
:103B500057EA0C0C6CD05FEAC07C0CD05FEAC15C09
:103B600009D54FF0010CC3F820C0D4F8903043F0D1
:103B70000103C4F89030830709D5D30707D0236821
:103B80001E62D4F8903043F00403C4F89030430729
:103B90000AD5D30708D0266804233362D4F89030BE
:103BA00043F00203C4F8903003070CD501F0200362
:103BB0003B4308D0266808233362D4F8903043F0A2
:103BC0000803C4F8903003050BD54B0109D52668CE
:103BD0004FF400633362D4F8903043F02003C4F80C
:103BE0009030D4F89030002B3DD0800609D501F0FC
:103BF000200002F08051084303D0616F09B12046D4
:103C00008847D4F8900021688968490602D410F0EA
:103C1000280F2AD0204603F0A9FD206880684006BE
:103C20001ED52068083050E8001F21F0400100E058
:103C300021E040E80012002AF3D1D4F8800078B1E6
:103C400079498163D4F88000FEF7ABF800280AD0E8
:103C5000D4F88000816B00E02046BDE8F0410847C1
:103C60002046FFF753FFBDE8F0812046FFF74EFFE7
:103C7000C4F89050F7E7D4F86CC02027BCF1010FCE
:103C80007ED15FEAC06C7BD55FEAC16C78D510202D
:103C9000186220688068400651D5D4F880100A6800
:103CA00050680004000C3ED0B4F85C3083423AD92E
:103CB000A4F85E000868006880062CD4206850E8EC
:103CC000001F21F4807140E80012002AF6D120681C
:103CD000083050E8001F21F0010140E80012002ADE
:103CE000F5D12068083050E8001F21F0400140E87D
:103CF0000012002AF5D1C4F88C70E566206850E8FF
:103D0000001F21F0100140E80012002AF6D1D4F87B
:103D10008000FEF711F82667B4F85C00B4F85E1076
:103D2000401A81B207E0B4F85C1081429BD1106860
:103D3000800698D526672046FFF798FE93E7B4F8EB
:103D40005C00B4F85E10401A81B2B4F85E0000283E
:103D500089D0002987D0206850E8002F22F4907283
:103D600040E80023002BF6D12D4BDB4320680830C0
:103D700050E8002F1A4040E8002CBCF1000F00E092
:103D80000EE0F3D1C4F88C70E5666567206850E8F2
:103D9000002F22F0100240E80023002BF6D1C9E7E3
:103DA000C60209D5560207D54FF480101862204686
:103DB000BDE8F041FFF7A9BE03060AD501F0800374
:103DC00002F40002134304D0A16F00297FF444AF32
:103DD00049E7420611D54A060FD52046016851E849
:103DE000002F22F0400241E80023002BF6D1C0F85A
:103DF0008870856700F0FAF835E7020206D54A00B8
:103E000004D52046BDE8F041FFF77EBEC00195D540
:103E1000002993DA2046BDE8F041FFF728BE0000F4
:103E20000100001020010004C176000810B5040054
:103E300003D0D4F8880010B107E0012010BD0020A5
:103E400084F88400204600F027F82420C4F8880075
:103E50002068016821F001010160A06A10B12046CC
:103E600003F074FB204603F0C3FC0128E6D0206871
:103E7000416821F4904141602068816821F02A0165
:103E800081602068016841F0010101602046BDE8C1
:103E9000104003F0BFBB000070B598B00646142177
:103EA00011A8FCF7EFF944216846FCF7EBF9264925
:103EB0003068884245D101200025CDE900056846DB
:103EC000FEF7A8FA08B1FCF705FE2049086E40F499
:103ED00080400866086E00F480401690C86C40F080
:103EE0000200C864C86C11A900F002001690C0203E
:103EF00011900220CDE9120503201490072015909F
:103F00001348FEF79FF8144C124820601920606097
:103F10001020C4E902058020C4E90405A561E5611B
:103F200020462562FDF7D6FF08B1FCF7D3FDF46704
:103F3000002203212520A662FEF7D4F92520FEF7F2
:103F4000C3F918B070BD00000038014000100240F5
:103F5000000400481C000240E002002070B5044646
:103F6000D0F88800202801D0022070BD39B332B3C8
:103F70002165A4F85420A4F856200021C4F890101C
:103F80002120C4F88800E06FD8B1154BC362E36FFD
:103F900014481863E36F14485863E06F1346816355
:103FA0002068E56F00F128022846216DFDF7F2FF39
:103FB00038B11020C4F890002020C4F888000120F7
:103FC00070BD2168402008622068083050E8001F5A
:103FD00041F0800140E80012002AF5D1002070BDB8
:103FE0002177000863770008D17600087047704792
:103FF00010B5417890ED081A012290ED070AB6EE4F
:10400000003A002351BB70EE410A4188491C60EE22
:10401000830A89B24180C0ED040AF5EEC00AF1EED0
:1040200010FA03D2F1EE600AC0ED040ADFED560A81
:10403000B1F5C87F42D3A1F5C874F1EE041AC82CBB
:1040400016D3C83C0A2C0AD2C0ED031AD0ED010ADF
:10405000D0ED041A70EEA10AC0ED010A32E0A1F21F
:104060006224C82C2AD3C83CF9EE041AC82C02D208
:10407000C0ED031A26E0A1F2F2340A2C0AD2C0EDF8
:10408000031AD0ED020AD0ED041A70EEA10AC0EDB9
:10409000020A17E0B1F57F7F10D0A1F54074FD3C16
:1040A00010D142704380D0ED020AD0ED011AF4EE37
:1040B000E10AF1EE10FA04DD027003E0C0ED030A3C
:1040C00000E0037070EE010A60EE830AC0ED090A99
:1040D000D0ED0A0A90ED0B1A30EE811A21EE031A88
:1040E00080ED0C1A80ED080AC0ED0B0AD0ED0F1A16
:1040F000C0ED101A90ED131A80ED141AD0ED0D2AB0
:1041000090ED0E0A32EEC00A60EE030AC0ED0F0A0F
:1041100090ED112A90ED120A32EE400A20EE030AC9
:1041200080ED130AC0ED0E2A80ED122A017DB1B197
:10413000012913D171EEE00A31EE400AC0ED150AF3
:1041400080ED160A90ED060AB5EEC00AF1EE10FAFF
:1041500003DDB1EE400A80ED060A037510BD70EE76
:10416000E10A30EE410AC0ED150A80ED160A90ED25
:10417000060AB5EEC00AF1EE10FA03D2B1EE400A1B
:1041800080ED060A027510BD00000000FEE7D0EDCC
:104190000D0AD0ED061A90ED0E1A90ED050A20EEEC
:1041A000A12A01EE402A21EE211A00EE801A80EDAC
:1041B0000F2A80ED101A7047F0B50020214D02261D
:1041C0000127AB1C044603EB80014A7822B1012A87
:1041D00008D0022A31D12BE013F820200ABB4C80F2
:1041E0004F702AE013F8202032B14988322924D8B0
:1041F000A8B1012816D020E04A88521C92B24A8009
:10420000322A1AD310B1012803D016E02E705E7046
:1042100013E0042129700B49891C4E710DE02F70A9
:104220005C700AE0032129700649891C4C7104E086
:1042300013F82020012A00D14C70401CC0B2022883
:10424000C1D3F0BD1C00002010B54FF40071074829
:10425000FDF7D0FF064C4FF4805120700548FDF764
:10426000C9FF2071BDE81040FFF7A6BF0008004855
:104270001E0000200004004810B5094C20880A28C0
:1042800005D014280AD1FFF7DFFF0A2005E0608877
:10429000642803D3002060801420208010BD00001B
:1042A000260000202DE9F04106461D4617460C4623
:1042B0002A2001F04FF8304601F042F8384601F06C
:1042C0003FF82B2001F046F81834A0B201F038F87E
:1042D0001835A8B201F034F8BDE8F0412C2001F007
:1042E00039B808B500205023A0220146009000F004
:1042F00080FB08BD08B500F09BFB0A4800904223F4
:104300003D2207212F2000F0D6FF40F2DC50FDF7C0
:1043100087FE00205023A0220146009000F069FB98
:1043200008BD000052BC00082DE9FE43EE4F0024FA
:104330001025B8784FF6FF76401CC0B2B87001283F
:104340007ED14FF47840CDE900053346E7A2002145
:104350000294402000F0F8FC48F21F48CDE90045E7
:104360004346E4A200216020029400F0CCFFCDE996
:1043700000454346E0A200219820029400F0C3FFCC
:104380004FF6E070CDE900050023DCA21021029475
:10439000402000F0D9FCCDE900454346D5A21021CC
:1043A0006020029400F0AFFFCDE900454346D5A25E
:1043B00010219820029400F0A6FF47F67C50CDE92A
:1043C00000053346D0A220210294402000F0BCFC1E
:1043D000CDE900454346C7A220216020029400F0A9
:1043E00092FFCDE900454346C9A2202198200294BE
:1043F00000F089FF4FF4FC60CDE900050023C5A261
:1044000030210294402000F09FFCCDE90045434656
:10441000B8A230216020029400F075FFCDE900457C
:104420004346BBA230219820029400F06CFF002389
:104430003C2219461846009600F084FA1F2300E03B
:1044400053E03C2200211046009600F07BFA002247
:104450001E2311461046009600F074FA1E233C22DB
:1044600019460020009600F06DFA01233B22194600
:104470001846009600F066FA3B221E2301211046E2
:10448000009600F05FFA01221D23114610460096A7
:1044900000F058FA1D233B2219460120009600F037
:1044A00051FA0721CDE9004533469CA20846029403
:1044B00000F029FFCDE9004533469AA220210420CF
:1044C000029400F020FFCDE90045334696A230214A
:1044D0000420029400F017FFCDE90045334693A273
:1044E00040210420029400F00EFFB878022873D314
:1044F0000220B8704FF6F347DFF838820097CDE915
:10450000014598ED030ADFED8C0A0423202120EEFB
:10451000200ABCEEC00A10EE100A82B21A2000F087
:104520008BFE0097CDE9014598ED040ADFED830A83
:104530000423302120EE200ABCEEC00A10EE100A3F
:1045400082B21A2000F078FECDE9004598ED220AEB
:104550003B4604220021702000F01EFE98ED310A37
:10456000CDE900453B46B5EEC00A0294F1EE10FAE3
:104570000BD273A21021682000F0C5FECDE90045E2
:1045800098ED310AB1EE400A08E06EA210216820D1
:1045900000F0B9FECDE9004598ED310A3B46042212
:1045A0001021702000F0F8FD98ED7F0ACDE900455C
:1045B0003B46B5EEC00A0294F1EE10FA0DD260A2AD
:1045C0002021682000F09FFE0097CDE9014598ED7D
:1045D0007F0AB1EE400A0AE058E05AA22021682082
:1045E00000F091FE0097CDE9014598ED7F0A052383
:1045F0002021BCEEC00A10EE100A82B2702000F03A
:104600001BFED8F83802CDE9004500283B4602944D
:104610000BDA4BA23021682000F075FE98ED8E0A6F
:10462000F8EEC00A9FED481A0AE046A23021682041
:1046300000F069FE98ED8E0AF8EEC00A9FED431A6D
:104640003B46042280EE810A30217020CDE90045EE
:1046500000F0A2FD98F8000078B1032818D00428D3
:104660001AD0052812D198F80100072831D009285E
:104670000CD1002336A200962EE00096CDE901541D
:104680004021002336A2084600F03DFEBDE8FE832F
:10469000002336A200961FE098F801000528F5D205
:1046A000DFE800F003070B0F1300002333A200968E
:1046B00012E0002335A200960EE0002337A20096F8
:1046C0000AE0002339A2009606E000233BA20096F0
:1046D00002E000233DA20096CDE9015440210846A6
:1046E00000F032FBD2E7000014000020B5E7D1B99A
:1046F000000000003A00000056000000B5E7C1F7D6
:104700000000000041000000CBD9B6C80000000046
:1047100052000000CEBBD6C3000000004853204624
:104720004F43000052533A004C443A005354415412
:1047300055533A005003002000007A440024744985
:104740002D0000002000000000F07FC500F07F4534
:10475000CEDEB8D0B8DFC6B5D7A2C8EB00000000E7
:104760004144435F43414C4942000000B5E7BBFA76
:10477000B2CECAFDB1E6CAB600000000D7AAD7D3B0
:10478000C1E3CEBBD0A3D7BC00000000D3D0B8D0CB
:10479000B5E7C1F7BFAABBB700000000D3D0B8D0BF
:1047A000B5E7C1F7B1D5BBB700000000D3D0B8D092
:1047B000CBD9B6C8B1D5BBB700000000D3D0B8D0B4
:1047C000CEBBD6C3B1D5BBB700000000CEDEB8D09B
:1047D000C7BFCDCFBBACC4A4000000002DE9FE4391
:1047E0003D4E00241025F0784FF6FF77401CC0B2F4
:1047F000F070012852D1CDE900453B4637A208218F
:104800000420029400F0A0FACDE900453B4634A212
:1048100018210420029400F097FACDE900453B46A8
:1048200030A228210420029400F08EFACDE9004540
:104830003B462DA238210420029400F085FA4FF661
:10484000F348CDE90045434628A2002140200294C8
:1048500000F07AFACDE90045434628A21021402015
:10486000029400F071FACDE90045434627A22021C9
:104870004020029400F068FACDE90045434627A2A3
:1048800030214020029400F05FFA4021CDE900453C
:10489000434626A20846029400F056FAB078022851
:1048A00017D30220B070CDE90045029496F90000BC
:1048B0003B4681B221A21E2000F025FDCDE9004536
:1048C000029496F901003B4681B21DA21E2000F021
:1048D0001AFDBDE8FE83000014000020C4A3000000
:1048E000CABD0000C7D00000BBBB0000D3D0B8D009
:1048F000B5E7C1F7B1D5BBB700000000D3D0B8D041
:10490000CBD9B6C8B1D5BBB700000000D3D0B8D062
:10491000CEBBD6C3B1D5BBB700000000CEDEB8D049
:10492000B8DFC6B5D7A2C8EB00000000CEDEB8D015
:10493000C7BFCDCFBBACC4A4000000002D2D3E00EE
:10494000202020002DE9FE4F0026A2EB0008824621
:104950005F1A701E35468946B8F1000F02DD4FF030
:10496000010102E003D14FF00001019102E0C8F122
:1049700000080190002F02DD4FF0010002E003D19A
:104980004FF00000009002E0C7F1000700904046A1
:10499000B84501DD044600E03C46601C4FF0000BCA
:1049A000029016E01FFA89F11FFA8AF00C9A00F0C3
:1049B00015F846443D44A64202DD0199361B8A445F
:1049C000A54202DD00992D1B89440BF101001FFA5D
:1049D00080FB02998B45E5DBBDE8FE8F10B51446E0
:1049E0000B460246FFF75EFC2046BDE8104000F093
:1049F000A7BC2DE9F04780461F46581E83B21646D5
:104A0000501E82B20D464046DDF82090FFF74AFC6A
:104A10000AE0444604E0484600F092FC641CA4B25C
:104A2000B442F8D36D1CADB2BD42F2D3BDE8F087FD
:104A300038B5804D4FF40064002221462846FDF72A
:104A4000E6FB6420FDF7ECFA012221462846FDF73B
:104A5000DEFBC820FDF7E4FA112000F07BFC782093
:104A6000FDF7DEFA202000F075FCB12000F072FCAA
:104A7000052000F083FC3C2000F080FC3C2000F08E
:104A80007DFCB22000F066FC052000F077FC3C20A5
:104A900000F074FC3C2000F071FCB32000F05AFCE4
:104AA000052000F06BFC3C2000F068FC3C2000F08E
:104AB00065FC052000F062FC3C2000F05FFC3C201F
:104AC00000F05CFCB42000F045FC032000F056FC34
:104AD000C02000F03FFCAB2000F050FC0B2000F0A9
:104AE0004DFC042000F04AFCC12000F033FCC5203E
:104AF00000F044FCC22000F02DFC0D2000F03EFC34
:104B0000002000F03BFCC32000F024FC8D2000F0CE
:104B100035FC6A2000F032FCC42000F01BFC8D2024
:104B200000F02CFCEE2000F029FCC52000F012FC67
:104B30000F2000F023FCE02000F00CFC072000F028
:104B40001DFC0E2000F01AFC082000F017FC0720C6
:104B500000F014FC102000F011FC072000F00EFC07
:104B6000022000F00BFC072000F008FC092000F0F8
:104B700005FC0F2000F002FC252000F0FFFB362092
:104B800000F0FCFB002000F0F9FB082000F0F6FB31
:104B9000042000F0F3FB102000F0F0FBE12000F017
:104BA000D9FB0A2000F0EAFB0D2000F0E7FB08200B
:104BB00000F0E4FB072000F0E1FB0F2000F0DEFB3B
:104BC000072000F0DBFB022000F0D8FB072000F0FC
:104BD000D5FB092000F0D2FB0F2000F0CFFB2520F1
:104BE00000F0CCFB352000F0C9FB002000F0C6FB34
:104BF000092000F0C3FB042000F0C0FB102000F0EF
:104C0000BDFB3A2000F0A6FB052000F0B7FB3620E4
:104C100000F0A0FBA82000F0B1FB00205023A02250
:104C200001460090FFF7E5FEBDE83840292000F07E
:104C300091BB0000000800482DE9FF4F83B00746F4
:104C4000DDF8449000904FEA590A4FF000085FEAFF
:104C50004A7000D0012000EBDA0000FB09F001905F
:104C60000498203A4844401E83B207EB0A0002F041
:104C7000FF0B401E82B238460499FFF713FB002554
:104C800050E0B9F10C0F28D0B9F1100F2BD0B9F1C9
:104C9000180F2CD0B9F1200F47D1274901EB8B1009
:104CA0000024465D129800284FF0010000FA04F03D
:104CB00000EA060021D020B13846069A0499FFF791
:104CC0008DFE7F1C0098BFB2391A514524D104983B
:104CD000009F401C80B2049022E018490BEB4B006F
:104CE00001EB8000DCE7164901EB0B10D8E7154912
:104CF0000BEB4B0001EB0010D2E708B1069800E087
:104D0000109800F01DFB08F10100C0B2B0FBFAF2F0
:104D100080460AFB128058B1641CE4B2082CC1D34F
:104D20006D1CADB201988542ABD307B0BDE8F08FE2
:104D30004FF00008F4E70000CC980008987C0008C9
:104D40000C810008FC8600082DE9FE4F9946DDE93C
:104D50000D4517468A4680460C9E15E00C2C18D04F
:104D6000102C20D0182C28D0202C10D100964B4687
:104D70003A4651464046CDE9014500F095F908EB29
:104D800004001FFA80F8BF1C38780028E6D1BDE87F
:104D9000FE8F00964B463A4651464046CDE90145C6
:104DA00000F016F8EBE700964B463A46514640466F
:104DB000CDE9014500F086F8E1E700964B463A461A
:104DC00051464046CDE9014500F0F4F8D7E7000030
:104DD0002DE9FF4F85B00546139F002600908B46B6
:104DE000780700D0012000EBD7007843029016200E
:104DF00003900020824600EB800101EBCA0030499D
:104E0000079A11F81030127893424DD101EB40000F
:104E10000190417807984078814245D10BEB07001B
:104E2000401E83B2E819401E82B259462846FFF759
:104E300039FA002034E00198002400EB08091498A6
:104E400099F8021000284FF0010000FA04F001EA7E
:104E5000000111D021B159462846089AFFF7BEFD3E
:104E60006D1C0098ADB2281AB84212D10BF10100A6
:104E70001FFA80FB009D10E009B1089800E012982D
:104E800000F05EFA761CF6B2B6FBF7F007FB106096
:104E9000A0B1641CE4B2082CD1D308F10100C0B267
:104EA000029980468842C6D30AF1010080B2039974
:104EB000824688429FD309B0BDE8F08F0026ECE718
:104EC0008CB000082DE9FF4F85B00546139F0026E2
:104ED00000908B46780700D0012000EBD700784384
:104EE00002902C204FF0000A03903149079A0AEBF8
:104EF0000A1011F81030127893424DD101EB4000A6
:104F00000190417807984078814245D10BEB07002A
:104F1000401E83B2E819401E82B259462846FFF768
:104F2000C1F9002034E00198002400EB080914982E
:104F300099F8021000284FF0010000FA04F001EA8D
:104F4000000111D021B159462846089AFFF746FDC5
:104F50006D1C0098ADB2281AB84212D10BF10100B5
:104F60001FFA80FB009D10E009B1089800E012983C
:104F700000F0E6F9761CF6B2B6FBF7F007FB10601E
:104F8000A0B1641CE4B2082CD1D308F10100C0B276
:104F9000029980468842C6D30AF1010003991FFA9C
:104FA00080FA8A45A1D309B0BDE8F08F0026ECE76E
:104FB000C8B200082DE9FF4F85B00546139F0026B3
:104FC00000908B46780700D0012000EBD700784393
:104FD0000290042003900020824600EB800101EB48
:104FE0004A103049079A11F81030127893424DD187
:104FF00001EB40000190417807984078814245D10B
:105000000BEB0700401E83B2E819401E82B25946DE
:105010002846FFF747F9002034E00198002400EB10
:105020000809149899F8021000284FF0010000FABE
:1050300004F001EA000111D021B159462846089A2E
:10504000FFF7CCFC6D1C0098ADB2281AB84212D103
:105050000BF101001FFA80FB009D10E009B10898D8
:1050600000E0129800F06CF9761CF6B2B6FBF7F08F
:1050700007FB1060A0B1641CE4B2082CD1D308F186
:105080000100C0B2029980468842C6D30AF10100ED
:1050900080B20399824688429FD309B0BDE8F08F61
:1050A0000026ECE7A0B800082DE9FF4F85B00546C3
:1050B000139F002600908B46780700D0012000EB5C
:1050C000D7007843029005204FF0000A0390314941
:1050D000079A0AEB8A1011F81030127893424DD1DA
:1050E00001EB40000190417807984078814245D11A
:1050F0000BEB0700401E83B2E819401E82B25946EE
:105100002846FFF7CFF8002034E00198002400EB98
:105110000809149899F8021000284FF0010000FACD
:1051200004F001EA000111D021B159462846089A3D
:10513000FFF754FC6D1C0098ADB2281AB84212D18A
:105140000BF101001FFA80FB009D10E009B10898E7
:1051500000E0129800F0F4F8761CF6B2B6FBF7F017
:1051600007FB1060A0B1641CE4B2082CD1D308F195
:105170000100C0B2029980468842C6D30AF10100FC
:1051800003991FFA80FA8A45A1D309B0BDE8F08FD0
:105190000026ECE7C8B900082DE9FF4F80462DED49
:1051A000020B83B0DFED230ADDE912A720EE200A0F
:1051B0007E0815460024BCEEC00A10EE100A1FFA45
:1051C00080FB31E0281B401EC1B20A2002F03CFDEA
:1051D000BBFBF0F00A21B0FBF1F201FB1209A81EA3
:1051E000844210D10021CDF800A0CDE9017100FB6F
:1051F000068080B22E22089B0699FFF71DFD641CD5
:105200006D1CE4B2EDB20021CDF800A009F1300030
:10521000CDE90171C2B204FB068080B2089B0699F9
:10522000FFF70AFD641CE4B2AC42CBD309B0BDE881
:10523000F08F00000000C8422DE9FF4F83B0002727
:10524000DDE911A81D4681464FEA58063C46BB469B
:105250002CE0281B401EC1B20A2002F0F5FC059983
:10526000B1FBF0F00A21B0FBF1F201FB120027B90B
:10527000691E8C4201DA58B101273030C2B2CDE943
:1052800000A804FB069080B2CDF808B0109B08E09F
:10529000CDE900A804FB0690109B80B2CDF808B0C1
:1052A00020220499FFF7C8FC641CE4B2AC42D0D3BE
:1052B00007B0BDE8F08F2DE9F0479846914601EB25
:1052C0000802521E93B200EB0902521E002492B251
:1052D000089FFEF7E7FF002611E000250BE017F816
:1052E000140000F04BF807EB4400407800F046F85B
:1052F0006D1CADB2641C4545F1D3761CB6B24E456B
:10530000EBD3BDE8F0872DE9FE4F9946DDE90D6747
:1053100014468A460546DDF830800CE0CDF8008062
:105320004B4651462846CDE90167FFF785FC05EB62
:10533000560085B2641C2278002AEFD1BDE8FE8FAA
:1053400010B50446000A00F019F8E0B2BDE81040BC
:1053500000F014B870B5084C054600220421204620
:10536000FCF755FF284600F009F82046BDE87040DC
:1053700001220421FCF74BBF000C004831B54FF46B
:1053800000444FF09045002221462846FCF73FFF9D
:1053900001231A4669460448FDF764FD01222146AF
:1053A0002846FCF734FF38BDA400002000EB810044
:1053B000006E00F0F840704700EB8100006E00F0D6
:1053C000F84070478068C0F3C00070478068C0F341
:1053D000C00070478068C0F3000070478068C0F369
:1053E000000070478068C0F3800070478068C0F399
:1053F00080007047C06810F4406F01D000207047F3
:1054000001207047042303EAD15310B518444369BF
:10541000C1F3045107248C40A3438A4013434361E2
:1054200010BD042303EAD15310B518444369C1F3F6
:10543000045107248C40A3438A401343436110BDA9
:1054400000EB8100016E21F00041114301667047BD
:1054500000EB8100016E21F00041114301667047AD
:105460002DE9F0473D4D288800240A2815D00A2749
:10547000DFF8EC80142817D01E2824D1FFF7AEF9EE
:1054800098F800003749384E01281ED0032827D04D
:10549000DFF8D89002282FD035E06888B0F57A7F01
:1054A00011D36C8014200DE0FEF73EFF2F8098F89A
:1054B0000000042807D12E4888F800400470FEF749
:1054C00010FF1E202880BDE8F0873078087010306B
:1054D00040B288F8004030704028F4DD3470F2E7C4
:1054E00030780870103840B288F8004030700028DA
:1054F000E9DA40203070E6E788F8004089F800409B
:10550000FEF7EFFE2F8098F800100429DBD188F811
:10551000004089F80040FEF7E4FE2F8096F9000075
:1055200004221449202812D006DC68B11028CAD100
:105530000A7003204870C6E7052230280AD04028A8
:10554000C1D10A700720F5E70A700220F2E70A705D
:105550004A70B8E70A700920ECE700001800002044
:105560001C00002015000020140000201600002060
:10557000170000205003002010B50B4C20880A288B
:1055800008D014280ED14FF400410848FCF737FE2C
:105590000A2006E06088B0F57A7F03D3002060809F
:1055A0001420208010BD00001000002000080048DA
:1055B00070B598B020210FA8FAF764FE3C21684628
:1055C000FAF760FE39483849002401604FF4403151
:1055D000C0E90114042585610121C460C0E90441CA
:1055E000047741770322026280F82440C462046396
:1055F00080F83810C46380F84040FCF7A9F908B17E
:1056000072B6FEE72A480F900620109005207F26EC
:10561000CDE91106CDE913540FA92448FBF750FE3C
:1056200008B172B6FEE723480F900C2010900FA926
:105630001E48FBF745FE08B172B6FEE71E480F9004
:10564000122010900FA91948FBF73AFE08B172B664
:10565000FEE71A48009001A9092081E85100CDE930
:10566000045402208DF8244008908DF825408DF8D0
:1056700026400A940B948DF8304069460B48FBF79E
:10568000D5FA08B172B6FEE70D48009040F20F104F
:10569000019069460548FBF7C9FA002801D072B6A7
:1056A000FEE718B070BD0000000100503800002077
:1056B0000008302E001060320080F03E0800900C90
:1056C000000052472DE9F04F87B014216846FAF7E1
:1056D000D9FD4848C16C41F00401C164C16C01F0BE
:1056E00004010591C16C41F02001C164C16C01F05D
:1056F00020010591C16C41F00101C164C16C01F050
:1057000001010591C16C41F00201C164C16C01F05D
:1057100002010591C16C41F00801C164C06CDFF861
:10572000D88000F008004FF4604405900122214623
:105730004046FCF76CFD4FF0904900220721484697
:10574000FCF765FDDFF8B4A0002201215046FCF70C
:105750005EFD0122D1034846FCF759FD4FF4006776
:10576000002239464046FCF752FDDFF894B0002293
:1057700004215846FCF74BFD009401240025CDE997
:105780000145694640460395FCF75CFC48F207007A
:1057900003268DE8710069464846FCF753FC01AAD0
:1057A000009482E8700069465046FCF74BFC2003E9
:1057B000CDE90005694602945046FCF743FC6002BF
:1057C000CDE90005694602944046FCF73BFC01AA7E
:1057D000009782E8700069464046FCF733FC0420DD
:1057E0008DE8710069465846FCF72CFC07B0BDE80F
:1057F000F08F00000010024000080048000400483C
:10580000000C0048124810B5104901604FF4827135
:1058100041604FF4004181604FF4E061C1600021BC
:105820004FF400720161C0E905120822C0E90721A6
:1058300007234162C0E90A13C0E90C12FDF768FAB8
:10584000002801D072B6FEE710BD0000003C004009
:10585000A400002010B59CB0002419941A94179449
:105860001894149415941C2168461694FAF70AFDAE
:10587000342107A8FAF706FD39483849C0E9001471
:105880002021816041F29A01C0E9031401214161A4
:1058900080218161FDF763FC08B172B6FEE74FF429
:1058A0008050179017A92E48FDF7F6FC08B172B684
:1058B000FEE72B48FDF7CDFF08B172B6FEE7149462
:1058C000159414A926481694FDF7FAFB08B172B690
:1058D000FEE77020CDE9000402940394049405943B
:1058E000002269461E480694FDF721FF08B172B6F2
:1058F000FEE7042269461A48FDF719FF08B172B69F
:10590000FEE7082269461648FDF711FF08B172B696
:10591000FEE70C2269461248FDF709FF08B172B68E
:10592000FEE70794089409944FF400500A94CDE9D7
:105930000B400D9400030E94CDE90F401194129486
:1059400007A907481394FDF769FB08B172B6FEE793
:105950000348FDF7C1FE1CB010BD0000002C014043
:105960000801002010B588B0002417480094019465
:1059700002940394049405944FF0804106940160CE
:10598000A921C0E901146321C0E9031480218161C8
:10599000FDF7E5FB08B172B6FEE74FF480500090CA
:1059A00069460948FDF778FC08B172B6FEE7049431
:1059B00004A905480694FDF783FB002801D072B6C0
:1059C000FEE708B010BD00005401002010B58CB0F7
:1059D00024216846FAF756FC0024174809940A94D3
:1059E00014490B94C0E9001440F6FF71C0E902416C
:1059F000046184610320CDE9000401200F21CDE979
:105A000002040491CDE90540079469460A480894C8
:105A1000FDF7C2FC08B172B6FEE7099409A9064871
:105A20000B94FDF74DFB002801D072B6FEE70CB0D9
:105A300010BD000000040040A0010020164810B571
:105A40001449016015494160002181600C22C16048
:105A5000C0E904128161C161016241628162FEF7A5
:105A6000E5F908B172B6FEE700210B48FEF726F80B
:105A700008B172B6FEE700210748FDF7F9FF08B14B
:105A800072B6FEE70448FDF7D2FF002801D072B6D7
:105A9000FEE710BD00380140EC01002080841E00AC
:105AA000FEE700002DE9F041874C0220254666798B
:105AB00095ED0E1AF7EE004A9FED843A95ED1F0A18
:105AC000012329790022DFED820AA43516B1012EC7
:105AD0007ED1A2E09FED7F4A7B4EF7EE083A4FF46D
